{
  "_format": "hh-sol-artifact-1",
  "contractName": "ghomultisig",
  "sourceName": "contracts/ghomultisig.sol",
  "abi": [
    {
      "inputs": [
        {
          "internalType": "address",
          "name": "_ghoTokenAddress",
          "type": "address"
        },
        {
          "internalType": "address[]",
          "name": "_signatories",
          "type": "address[]"
        },
        {
          "internalType": "uint256",
          "name": "_requiredConfirmations",
          "type": "uint256"
        }
      ],
      "stateMutability": "nonpayable",
      "type": "constructor"
    },
    {
      "anonymous": false,
      "inputs": [
        {
          "indexed": true,
          "internalType": "address",
          "name": "added",
          "type": "address"
        }
      ],
      "name": "AddSignatory",
      "type": "event"
    },
    {
      "anonymous": false,
      "inputs": [
        {
          "indexed": true,
          "internalType": "address",
          "name": "owner",
          "type": "address"
        },
        {
          "indexed": true,
          "internalType": "uint256",
          "name": "sigIndex",
          "type": "uint256"
        }
      ],
      "name": "ConfirmSignatory",
      "type": "event"
    },
    {
      "anonymous": false,
      "inputs": [
        {
          "indexed": true,
          "internalType": "address",
          "name": "owner",
          "type": "address"
        },
        {
          "indexed": true,
          "internalType": "uint256",
          "name": "txIndex",
          "type": "uint256"
        }
      ],
      "name": "ConfirmTransaction",
      "type": "event"
    },
    {
      "anonymous": false,
      "inputs": [
        {
          "indexed": true,
          "internalType": "address",
          "name": "owner",
          "type": "address"
        },
        {
          "indexed": true,
          "internalType": "uint256",
          "name": "txIndex",
          "type": "uint256"
        }
      ],
      "name": "ExecuteTransaction",
      "type": "event"
    },
    {
      "anonymous": false,
      "inputs": [
        {
          "indexed": true,
          "internalType": "address",
          "name": "owner",
          "type": "address"
        },
        {
          "indexed": false,
          "internalType": "uint256",
          "name": "requiredConfirmations",
          "type": "uint256"
        }
      ],
      "name": "IncreaseMinimumConfirmations",
      "type": "event"
    },
    {
      "anonymous": false,
      "inputs": [
        {
          "indexed": true,
          "internalType": "address",
          "name": "owner",
          "type": "address"
        },
        {
          "indexed": true,
          "internalType": "address",
          "name": "added",
          "type": "address"
        },
        {
          "indexed": true,
          "internalType": "uint256",
          "name": "signatoryIndex",
          "type": "uint256"
        }
      ],
      "name": "NewSignatoryInQueue",
      "type": "event"
    },
    {
      "anonymous": false,
      "inputs": [
        {
          "indexed": true,
          "internalType": "address",
          "name": "owner",
          "type": "address"
        },
        {
          "indexed": true,
          "internalType": "uint256",
          "name": "txIndex",
          "type": "uint256"
        },
        {
          "indexed": true,
          "internalType": "address",
          "name": "to",
          "type": "address"
        },
        {
          "indexed": false,
          "internalType": "uint256",
          "name": "amount",
          "type": "uint256"
        }
      ],
      "name": "SubmitTransaction",
      "type": "event"
    },
    {
      "inputs": [
        {
          "internalType": "address",
          "name": "_addedSignatory",
          "type": "address"
        }
      ],
      "name": "addSignatory",
      "outputs": [],
      "stateMutability": "nonpayable",
      "type": "function"
    },
    {
      "inputs": [],
      "name": "balance",
      "outputs": [
        {
          "internalType": "uint256",
          "name": "",
          "type": "uint256"
        }
      ],
      "stateMutability": "view",
      "type": "function"
    },
    {
      "inputs": [
        {
          "internalType": "uint256",
          "name": "sigIndex",
          "type": "uint256"
        }
      ],
      "name": "confirmSignatory",
      "outputs": [],
      "stateMutability": "nonpayable",
      "type": "function"
    },
    {
      "inputs": [
        {
          "internalType": "uint256",
          "name": "_txIndex",
          "type": "uint256"
        }
      ],
      "name": "confirmTransaction",
      "outputs": [],
      "stateMutability": "nonpayable",
      "type": "function"
    },
    {
      "inputs": [
        {
          "internalType": "uint256",
          "name": "_txIndex",
          "type": "uint256"
        }
      ],
      "name": "executeTransaction",
      "outputs": [],
      "stateMutability": "nonpayable",
      "type": "function"
    },
    {
      "inputs": [
        {
          "internalType": "address",
          "name": "_address",
          "type": "address"
        }
      ],
      "name": "getTokenBalance",
      "outputs": [
        {
          "internalType": "uint256",
          "name": "",
          "type": "uint256"
        }
      ],
      "stateMutability": "view",
      "type": "function"
    },
    {
      "inputs": [],
      "name": "ghoToken",
      "outputs": [
        {
          "internalType": "contract IERC20",
          "name": "",
          "type": "address"
        }
      ],
      "stateMutability": "view",
      "type": "function"
    },
    {
      "inputs": [
        {
          "internalType": "address",
          "name": "",
          "type": "address"
        }
      ],
      "name": "isSignatory",
      "outputs": [
        {
          "internalType": "bool",
          "name": "",
          "type": "bool"
        }
      ],
      "stateMutability": "view",
      "type": "function"
    },
    {
      "inputs": [
        {
          "internalType": "uint256",
          "name": "",
          "type": "uint256"
        }
      ],
      "name": "newSignatories",
      "outputs": [
        {
          "internalType": "address",
          "name": "sigAddress",
          "type": "address"
        },
        {
          "internalType": "bool",
          "name": "confirmed",
          "type": "bool"
        },
        {
          "internalType": "uint256",
          "name": "confirmationsCount",
          "type": "uint256"
        }
      ],
      "stateMutability": "view",
      "type": "function"
    },
    {
      "inputs": [],
      "name": "requiredConfirmations",
      "outputs": [
        {
          "internalType": "uint256",
          "name": "",
          "type": "uint256"
        }
      ],
      "stateMutability": "view",
      "type": "function"
    },
    {
      "inputs": [
        {
          "internalType": "uint256",
          "name": "",
          "type": "uint256"
        }
      ],
      "name": "signatories",
      "outputs": [
        {
          "internalType": "address",
          "name": "",
          "type": "address"
        }
      ],
      "stateMutability": "view",
      "type": "function"
    },
    {
      "inputs": [
        {
          "internalType": "address",
          "name": "_to",
          "type": "address"
        },
        {
          "internalType": "uint256",
          "name": "_amount",
          "type": "uint256"
        }
      ],
      "name": "submitTransaction",
      "outputs": [],
      "stateMutability": "nonpayable",
      "type": "function"
    },
    {
      "inputs": [
        {
          "internalType": "uint256",
          "name": "",
          "type": "uint256"
        }
      ],
      "name": "transactions",
      "outputs": [
        {
          "internalType": "address",
          "name": "to",
          "type": "address"
        },
        {
          "internalType": "uint256",
          "name": "amount",
          "type": "uint256"
        },
        {
          "internalType": "bool",
          "name": "executed",
          "type": "bool"
        },
        {
          "internalType": "uint256",
          "name": "confirmationsCount",
          "type": "uint256"
        }
      ],
      "stateMutability": "view",
      "type": "function"
    }
  ],
  "bytecode": "0x60806040523480156200001157600080fd5b5060405162002458380380620024588339818101604052810190620000379190620004f3565b826000806101000a81548173ffffffffffffffffffffffffffffffffffffffff021916908373ffffffffffffffffffffffffffffffffffffffff1602179055508082511015620000be576040517f08c379a0000000000000000000000000000000000000000000000000000000008152600401620000b590620005cf565b60405180910390fd5b60005b8251811015620002b9576000838281518110620000e357620000e2620005f1565b5b60200260200101519050600073ffffffffffffffffffffffffffffffffffffffff168173ffffffffffffffffffffffffffffffffffffffff16036200015f576040517f08c379a0000000000000000000000000000000000000000000000000000000008152600401620001569062000670565b60405180910390fd5b600360008273ffffffffffffffffffffffffffffffffffffffff1673ffffffffffffffffffffffffffffffffffffffff16815260200190815260200160002060009054906101000a900460ff1615620001ef576040517f08c379a0000000000000000000000000000000000000000000000000000000008152600401620001e690620006e2565b60405180910390fd5b6001600360008373ffffffffffffffffffffffffffffffffffffffff1673ffffffffffffffffffffffffffffffffffffffff16815260200190815260200160002060006101000a81548160ff0219169083151502179055506002819080600181540180825580915050600190039060005260206000200160009091909190916101000a81548173ffffffffffffffffffffffffffffffffffffffff021916908373ffffffffffffffffffffffffffffffffffffffff160217905550508080600101915050620000c1565b508060048190555050505062000704565b6000604051905090565b600080fd5b600080fd5b600073ffffffffffffffffffffffffffffffffffffffff82169050919050565b60006200030b82620002de565b9050919050565b6200031d81620002fe565b81146200032957600080fd5b50565b6000815190506200033d8162000312565b92915050565b600080fd5b6000601f19601f8301169050919050565b7f4e487b7100000000000000000000000000000000000000000000000000000000600052604160045260246000fd5b620003938262000348565b810181811067ffffffffffffffff82111715620003b557620003b462000359565b5b80604052505050565b6000620003ca620002ca565b9050620003d8828262000388565b919050565b600067ffffffffffffffff821115620003fb57620003fa62000359565b5b602082029050602081019050919050565b600080fd5b6000620004286200042284620003dd565b620003be565b905080838252602082019050602084028301858111156200044e576200044d6200040c565b5b835b818110156200047b57806200046688826200032c565b84526020840193505060208101905062000450565b5050509392505050565b600082601f8301126200049d576200049c62000343565b5b8151620004af84826020860162000411565b91505092915050565b6000819050919050565b620004cd81620004b8565b8114620004d957600080fd5b50565b600081519050620004ed81620004c2565b92915050565b6000806000606084860312156200050f576200050e620002d4565b5b60006200051f868287016200032c565b935050602084015167ffffffffffffffff811115620005435762000542620002d9565b5b620005518682870162000485565b92505060406200056486828701620004dc565b9150509250925092565b600082825260208201905092915050565b7f4e6f7420656e6f756768207369676e61746f7269657300000000000000000000600082015250565b6000620005b76016836200056e565b9150620005c4826200057f565b602082019050919050565b60006020820190508181036000830152620005ea81620005a8565b9050919050565b7f4e487b7100000000000000000000000000000000000000000000000000000000600052603260045260246000fd5b7f496e76616c6964207369676e61746f7279000000000000000000000000000000600082015250565b6000620006586011836200056e565b9150620006658262000620565b602082019050919050565b600060208201905081810360008301526200068b8162000649565b9050919050565b7f5369676e61746f7279206e6f7420756e69717565000000000000000000000000600082015250565b6000620006ca6014836200056e565b9150620006d78262000692565b602082019050919050565b60006020820190508181036000830152620006fd81620006bb565b9050919050565b611d4480620007146000396000f3fe608060405234801561001057600080fd5b50600436106100cf5760003560e01c80639546a84e1161008c578063b69ef8a811610066578063b69ef8a814610229578063c01a8c8414610247578063cdb9df6b14610263578063ee22610b14610293576100cf565b80639546a84e146101945780639abd4dd9146101c65780639ace38c2146101f6576100cf565b80631d43b653146100d457806321dd877f146100f05780633aecd0e31461010c5780634f0001fa1461013c5780635996db911461015857806382e717f714610176575b600080fd5b6100ee60048036038101906100e99190611509565b6102af565b005b61010a60048036038101906101059190611549565b610441565b005b61012660048036038101906101219190611549565b6108b6565b6040516101339190611585565b60405180910390f35b610156600480360381019061015191906115a0565b61095a565b005b610160610df4565b60405161016d919061162c565b60405180910390f35b61017e610e18565b60405161018b9190611585565b60405180910390f35b6101ae60048036038101906101a991906115a0565b610e1e565b6040516101bd93929190611671565b60405180910390f35b6101e060048036038101906101db9190611549565b610e85565b6040516101ed91906116a8565b60405180910390f35b610210600480360381019061020b91906115a0565b610ea5565b60405161022094939291906116c3565b60405180910390f35b610231610f12565b60405161023e9190611585565b60405180910390f35b610261600480360381019061025c91906115a0565b610f18565b005b61027d600480360381019061027891906115a0565b611169565b60405161028a9190611708565b60405180910390f35b6102ad60048036038101906102a891906115a0565b6111a8565b005b600360003373ffffffffffffffffffffffffffffffffffffffff1673ffffffffffffffffffffffffffffffffffffffff16815260200190815260200160002060009054906101000a900460ff1661033b576040517f08c379a000000000000000000000000000000000000000000000000000000000815260040161033290611780565b60405180910390fd5b60006005805490509050600560018160018154018082558091505003906000526020600020905050600060058281548110610379576103786117a0565b5b90600052602060002090600502019050838160000160006101000a81548173ffffffffffffffffffffffffffffffffffffffff021916908373ffffffffffffffffffffffffffffffffffffffff1602179055508281600101819055508373ffffffffffffffffffffffffffffffffffffffff16823373ffffffffffffffffffffffffffffffffffffffff167fcd144288a078b7562351164feb1762115faca27f30827b4142f2bbe27166e320866040516104339190611585565b60405180910390a450505050565b600360003373ffffffffffffffffffffffffffffffffffffffff1673ffffffffffffffffffffffffffffffffffffffff16815260200190815260200160002060009054906101000a900460ff166104cd576040517f08c379a00000000000000000000000000000000000000000000000000000000081526004016104c490611780565b60405180910390fd5b600360008273ffffffffffffffffffffffffffffffffffffffff1673ffffffffffffffffffffffffffffffffffffffff16815260200190815260200160002060009054906101000a900460ff161561055a576040517f08c379a00000000000000000000000000000000000000000000000000000000081526004016105519061181b565b60405180910390fd5b600073ffffffffffffffffffffffffffffffffffffffff168173ffffffffffffffffffffffffffffffffffffffff16036105c9576040517f08c379a00000000000000000000000000000000000000000000000000000000081526004016105c090611887565b60405180910390fd5b600160028054905003610743576001600360008373ffffffffffffffffffffffffffffffffffffffff1673ffffffffffffffffffffffffffffffffffffffff16815260200190815260200160002060006101000a81548160ff0219169083151502179055506002819080600181540180825580915050600190039060005260206000200160009091909190916101000a81548173ffffffffffffffffffffffffffffffffffffffff021916908373ffffffffffffffffffffffffffffffffffffffff1602179055506001600460008282546106a491906118d6565b925050819055508073ffffffffffffffffffffffffffffffffffffffff167fafa2fee17ecbc1c3858c3cfc3c928683189c429a4a7d3d1734abeaca03986aa160405160405180910390a23373ffffffffffffffffffffffffffffffffffffffff167f2ccb3a457aa93d20522516925bd748e3af1575d72225ff1439460468d1b5be3a6004546040516107369190611585565b60405180910390a26108b3565b60006006805490509050600660018160018154018082558091505003906000526020600020905050600060068281548110610781576107806117a0565b5b90600052602060002090600302019050828160000160006101000a81548173ffffffffffffffffffffffffffffffffffffffff021916908373ffffffffffffffffffffffffffffffffffffffff16021790555060018160010160003373ffffffffffffffffffffffffffffffffffffffff1673ffffffffffffffffffffffffffffffffffffffff16815260200190815260200160002060006101000a81548160ff0219169083151502179055506001816002018190555060008160000160146101000a81548160ff021916908315150217905550818373ffffffffffffffffffffffffffffffffffffffff163373ffffffffffffffffffffffffffffffffffffffff167f771a44a31dd5bf98346299ca49f404d2bf6798fa74b3a69e04c5192e682677a760405160405180910390a450505b50565b60008060009054906101000a900473ffffffffffffffffffffffffffffffffffffffff1673ffffffffffffffffffffffffffffffffffffffff166370a08231836040518263ffffffff1660e01b81526004016109129190611708565b602060405180830381865afa15801561092f573d6000803e3d6000fd5b505050506040513d601f19601f82011682018060405250810190610953919061191f565b9050919050565b600360003373ffffffffffffffffffffffffffffffffffffffff1673ffffffffffffffffffffffffffffffffffffffff16815260200190815260200160002060009054906101000a900460ff166109e6576040517f08c379a00000000000000000000000000000000000000000000000000000000081526004016109dd90611780565b60405180910390fd5b6002805490508110610a2d576040517f08c379a0000000000000000000000000000000000000000000000000000000008152600401610a2490611998565b60405180910390fd5b600060068281548110610a4357610a426117a0565b5b906000526020600020906003020190508060000160149054906101000a900460ff1615610aa5576040517f08c379a0000000000000000000000000000000000000000000000000000000008152600401610a9c90611a2a565b60405180910390fd5b8060010160003373ffffffffffffffffffffffffffffffffffffffff1673ffffffffffffffffffffffffffffffffffffffff16815260200190815260200160002060009054906101000a900460ff1615610b34576040517f08c379a0000000000000000000000000000000000000000000000000000000008152600401610b2b90611abc565b60405180910390fd5b60018160010160003373ffffffffffffffffffffffffffffffffffffffff1673ffffffffffffffffffffffffffffffffffffffff16815260200190815260200160002060006101000a81548160ff0219169083151502179055506001816002016000828254610ba391906118d6565b92505081905550813373ffffffffffffffffffffffffffffffffffffffff167f16c40163082e3a3e33b18937aa339fa7ed6ff002745a308fd348198c64588ef460405160405180910390a3600280549050816002015403610df05760018160000160146101000a81548160ff0219169083151502179055506001600360008360000160009054906101000a900473ffffffffffffffffffffffffffffffffffffffff1673ffffffffffffffffffffffffffffffffffffffff1673ffffffffffffffffffffffffffffffffffffffff16815260200190815260200160002060006101000a81548160ff02191690831515021790555060028160000160009054906101000a900473ffffffffffffffffffffffffffffffffffffffff169080600181540180825580915050600190039060005260206000200160009091909190916101000a81548173ffffffffffffffffffffffffffffffffffffffff021916908373ffffffffffffffffffffffffffffffffffffffff160217905550600160046000828254610d3191906118d6565b925050819055503373ffffffffffffffffffffffffffffffffffffffff167f2ccb3a457aa93d20522516925bd748e3af1575d72225ff1439460468d1b5be3a600454604051610d809190611585565b60405180910390a28060000160009054906101000a900473ffffffffffffffffffffffffffffffffffffffff1673ffffffffffffffffffffffffffffffffffffffff167fafa2fee17ecbc1c3858c3cfc3c928683189c429a4a7d3d1734abeaca03986aa160405160405180910390a25b5050565b60008054906101000a900473ffffffffffffffffffffffffffffffffffffffff1681565b60045481565b60068181548110610e2e57600080fd5b90600052602060002090600302016000915090508060000160009054906101000a900473ffffffffffffffffffffffffffffffffffffffff16908060000160149054906101000a900460ff16908060020154905083565b60036020528060005260406000206000915054906101000a900460ff1681565b60058181548110610eb557600080fd5b90600052602060002090600502016000915090508060000160009054906101000a900473ffffffffffffffffffffffffffffffffffffffff16908060010154908060020160009054906101000a900460ff16908060040154905084565b60015481565b600360003373ffffffffffffffffffffffffffffffffffffffff1673ffffffffffffffffffffffffffffffffffffffff16815260200190815260200160002060009054906101000a900460ff16610fa4576040517f08c379a0000000000000000000000000000000000000000000000000000000008152600401610f9b90611780565b60405180910390fd5b600060058281548110610fba57610fb96117a0565b5b906000526020600020906005020190508060020160009054906101000a900460ff161561101c576040517f08c379a000000000000000000000000000000000000000000000000000000000815260040161101390611b28565b60405180910390fd5b8060030160003373ffffffffffffffffffffffffffffffffffffffff1673ffffffffffffffffffffffffffffffffffffffff16815260200190815260200160002060009054906101000a900460ff16156110ab576040517f08c379a00000000000000000000000000000000000000000000000000000000081526004016110a290611b94565b60405180910390fd5b60018160030160003373ffffffffffffffffffffffffffffffffffffffff1673ffffffffffffffffffffffffffffffffffffffff16815260200190815260200160002060006101000a81548160ff021916908315150217905550600181600401600082825461111a91906118d6565b92505081905550813373ffffffffffffffffffffffffffffffffffffffff167f5cbe105e36805f7820e291f799d5794ff948af2a5f664e580382defb6339004160405160405180910390a35050565b6002818154811061117957600080fd5b906000526020600020016000915054906101000a900473ffffffffffffffffffffffffffffffffffffffff1681565b600360003373ffffffffffffffffffffffffffffffffffffffff1673ffffffffffffffffffffffffffffffffffffffff16815260200190815260200160002060009054906101000a900460ff16611234576040517f08c379a000000000000000000000000000000000000000000000000000000000815260040161122b90611780565b60405180910390fd5b600580549050811061124557600080fd5b60006005828154811061125b5761125a6117a0565b5b906000526020600020906005020190508060020160009054906101000a900460ff16156112bd576040517f08c379a00000000000000000000000000000000000000000000000000000000081526004016112b490611b28565b60405180910390fd5b60045481600401541015611306576040517f08c379a00000000000000000000000000000000000000000000000000000000081526004016112fd90611c00565b60405180910390fd5b60008054906101000a900473ffffffffffffffffffffffffffffffffffffffff1673ffffffffffffffffffffffffffffffffffffffff1663a9059cbb8260000160009054906101000a900473ffffffffffffffffffffffffffffffffffffffff1683600101546040518363ffffffff1660e01b8152600401611389929190611c20565b6020604051808303816000875af11580156113a8573d6000803e3d6000fd5b505050506040513d601f19601f820116820180604052508101906113cc9190611c75565b61140b576040517f08c379a000000000000000000000000000000000000000000000000000000000815260040161140290611cee565b60405180910390fd5b60018160020160006101000a81548160ff021916908315150217905550813373ffffffffffffffffffffffffffffffffffffffff167f5445f318f4f5fcfb66592e68e0cc5822aa15664039bd5f0ffde24c5a8142b1ac60405160405180910390a35050565b600080fd5b600073ffffffffffffffffffffffffffffffffffffffff82169050919050565b60006114a082611475565b9050919050565b6114b081611495565b81146114bb57600080fd5b50565b6000813590506114cd816114a7565b92915050565b6000819050919050565b6114e6816114d3565b81146114f157600080fd5b50565b600081359050611503816114dd565b92915050565b600080604083850312156115205761151f611470565b5b600061152e858286016114be565b925050602061153f858286016114f4565b9150509250929050565b60006020828403121561155f5761155e611470565b5b600061156d848285016114be565b91505092915050565b61157f816114d3565b82525050565b600060208201905061159a6000830184611576565b92915050565b6000602082840312156115b6576115b5611470565b5b60006115c4848285016114f4565b91505092915050565b6000819050919050565b60006115f26115ed6115e884611475565b6115cd565b611475565b9050919050565b6000611604826115d7565b9050919050565b6000611616826115f9565b9050919050565b6116268161160b565b82525050565b6000602082019050611641600083018461161d565b92915050565b61165081611495565b82525050565b60008115159050919050565b61166b81611656565b82525050565b60006060820190506116866000830186611647565b6116936020830185611662565b6116a06040830184611576565b949350505050565b60006020820190506116bd6000830184611662565b92915050565b60006080820190506116d86000830187611647565b6116e56020830186611576565b6116f26040830185611662565b6116ff6060830184611576565b95945050505050565b600060208201905061171d6000830184611647565b92915050565b600082825260208201905092915050565b7f4e6f742061207369676e61746f72790000000000000000000000000000000000600082015250565b600061176a600f83611723565b915061177582611734565b602082019050919050565b600060208201905081810360008301526117998161175d565b9050919050565b7f4e487b7100000000000000000000000000000000000000000000000000000000600052603260045260246000fd5b7f4164647265737320697320616c72656164792061207369676e61746f72790000600082015250565b6000611805601e83611723565b9150611810826117cf565b602082019050919050565b60006020820190508181036000830152611834816117f8565b9050919050565b7f496e76616c6964207369676e61746f7279000000000000000000000000000000600082015250565b6000611871601183611723565b915061187c8261183b565b602082019050919050565b600060208201905081810360008301526118a081611864565b9050919050565b7f4e487b7100000000000000000000000000000000000000000000000000000000600052601160045260246000fd5b60006118e1826114d3565b91506118ec836114d3565b9250828201905080821115611904576119036118a7565b5b92915050565b600081519050611919816114dd565b92915050565b60006020828403121561193557611934611470565b5b60006119438482850161190a565b91505092915050565b7f4e6f7420612076616c6964207369676e61746f727920696e6465780000000000600082015250565b6000611982601b83611723565b915061198d8261194c565b602082019050919050565b600060208201905081810360008301526119b181611975565b9050919050565b7f5369676e61746f7279206164646974696f6e2068617320616c7265616479206260008201527f65656e20636f6e6669726d656400000000000000000000000000000000000000602082015250565b6000611a14602d83611723565b9150611a1f826119b8565b604082019050919050565b60006020820190508181036000830152611a4381611a07565b9050919050565b7f4e6577205369676e61746f727920616c726561647920636f6e6669726d65642060008201527f6279207468697320616464726573730000000000000000000000000000000000602082015250565b6000611aa6602f83611723565b9150611ab182611a4a565b604082019050919050565b60006020820190508181036000830152611ad581611a99565b9050919050565b7f5472616e73616374696f6e20616c726561647920657865637574656400000000600082015250565b6000611b12601c83611723565b9150611b1d82611adc565b602082019050919050565b60006020820190508181036000830152611b4181611b05565b9050919050565b7f5472616e73616374696f6e20616c726561647920636f6e6669726d6564000000600082015250565b6000611b7e601d83611723565b9150611b8982611b48565b602082019050919050565b60006020820190508181036000830152611bad81611b71565b9050919050565b7f496e73756666696369656e7420636f6e6669726d6174696f6e73000000000000600082015250565b6000611bea601a83611723565b9150611bf582611bb4565b602082019050919050565b60006020820190508181036000830152611c1981611bdd565b9050919050565b6000604082019050611c356000830185611647565b611c426020830184611576565b9392505050565b611c5281611656565b8114611c5d57600080fd5b50565b600081519050611c6f81611c49565b92915050565b600060208284031215611c8b57611c8a611470565b5b6000611c9984828501611c60565b91505092915050565b7f5472616e73666572206661696c65640000000000000000000000000000000000600082015250565b6000611cd8600f83611723565b9150611ce382611ca2565b602082019050919050565b60006020820190508181036000830152611d0781611ccb565b905091905056fea26469706673582212202f377b3016c613cc3e338e655beff1394ac17e5040661e4a82c24101311ec6b064736f6c63430008170033",
  "linkReferences": {},
  "deployedLinkReferences": {}
}