{
  "_format": "hh-sol-artifact-1",
  "contractName": "ghomultisig",
  "sourceName": "contracts/ghomultisig.sol",
  "abi": [
    {
      "inputs": [
        {
          "internalType": "address[]",
          "name": "_signatories",
          "type": "address[]"
        },
        {
          "internalType": "uint256",
          "name": "_requiredConfirmations",
          "type": "uint256"
        }
      ],
      "stateMutability": "nonpayable",
      "type": "constructor"
    },
    {
      "anonymous": false,
      "inputs": [
        {
          "indexed": true,
          "internalType": "address",
          "name": "added",
          "type": "address"
        }
      ],
      "name": "AddSignatory",
      "type": "event"
    },
    {
      "anonymous": false,
      "inputs": [
        {
          "indexed": true,
          "internalType": "address",
          "name": "owner",
          "type": "address"
        },
        {
          "indexed": true,
          "internalType": "uint256",
          "name": "sigIndex",
          "type": "uint256"
        }
      ],
      "name": "ConfirmSignatory",
      "type": "event"
    },
    {
      "anonymous": false,
      "inputs": [
        {
          "indexed": true,
          "internalType": "address",
          "name": "owner",
          "type": "address"
        },
        {
          "indexed": false,
          "internalType": "uint256",
          "name": "requiredConfirmations",
          "type": "uint256"
        }
      ],
      "name": "DecreaseMinimumConfirmations",
      "type": "event"
    },
    {
      "anonymous": false,
      "inputs": [
        {
          "indexed": true,
          "internalType": "address",
          "name": "sender",
          "type": "address"
        },
        {
          "indexed": false,
          "internalType": "uint256",
          "name": "amount",
          "type": "uint256"
        },
        {
          "indexed": false,
          "internalType": "uint256",
          "name": "balance",
          "type": "uint256"
        }
      ],
      "name": "Deposit",
      "type": "event"
    },
    {
      "anonymous": false,
      "inputs": [
        {
          "indexed": true,
          "internalType": "address",
          "name": "owner",
          "type": "address"
        },
        {
          "indexed": true,
          "internalType": "uint256",
          "name": "txIndex",
          "type": "uint256"
        }
      ],
      "name": "ExecuteTransaction",
      "type": "event"
    },
    {
      "anonymous": false,
      "inputs": [
        {
          "indexed": true,
          "internalType": "address",
          "name": "owner",
          "type": "address"
        },
        {
          "indexed": false,
          "internalType": "uint256",
          "name": "requiredConfirmations",
          "type": "uint256"
        }
      ],
      "name": "IncreaseMinimumConfirmations",
      "type": "event"
    },
    {
      "anonymous": false,
      "inputs": [
        {
          "indexed": true,
          "internalType": "address",
          "name": "owner",
          "type": "address"
        },
        {
          "indexed": true,
          "internalType": "address",
          "name": "added",
          "type": "address"
        },
        {
          "indexed": true,
          "internalType": "uint256",
          "name": "signatoryIndex",
          "type": "uint256"
        }
      ],
      "name": "NewSignatoryInQueue",
      "type": "event"
    },
    {
      "anonymous": false,
      "inputs": [
        {
          "indexed": true,
          "internalType": "address",
          "name": "removed",
          "type": "address"
        }
      ],
      "name": "RemovedSignatory",
      "type": "event"
    },
    {
      "anonymous": false,
      "inputs": [
        {
          "indexed": true,
          "internalType": "address",
          "name": "owner",
          "type": "address"
        },
        {
          "indexed": true,
          "internalType": "uint256",
          "name": "sigIndex",
          "type": "uint256"
        }
      ],
      "name": "RemovedSignatureFromSignatory",
      "type": "event"
    },
    {
      "anonymous": false,
      "inputs": [
        {
          "indexed": true,
          "internalType": "address",
          "name": "owner",
          "type": "address"
        },
        {
          "indexed": true,
          "internalType": "uint256",
          "name": "txIndex",
          "type": "uint256"
        }
      ],
      "name": "RemovedSignatureFromTransaction",
      "type": "event"
    },
    {
      "anonymous": false,
      "inputs": [
        {
          "indexed": true,
          "internalType": "address",
          "name": "owner",
          "type": "address"
        },
        {
          "indexed": true,
          "internalType": "uint256",
          "name": "txIndex",
          "type": "uint256"
        }
      ],
      "name": "SignedTransaction",
      "type": "event"
    },
    {
      "anonymous": false,
      "inputs": [
        {
          "indexed": true,
          "internalType": "address",
          "name": "owner",
          "type": "address"
        },
        {
          "indexed": true,
          "internalType": "uint256",
          "name": "txIndex",
          "type": "uint256"
        },
        {
          "indexed": true,
          "internalType": "address",
          "name": "to",
          "type": "address"
        },
        {
          "indexed": false,
          "internalType": "uint256",
          "name": "amount",
          "type": "uint256"
        }
      ],
      "name": "SubmitTransaction",
      "type": "event"
    },
    {
      "inputs": [
        {
          "internalType": "address",
          "name": "_addedSignatory",
          "type": "address"
        }
      ],
      "name": "addSignatory",
      "outputs": [],
      "stateMutability": "nonpayable",
      "type": "function"
    },
    {
      "inputs": [],
      "name": "balanceETH",
      "outputs": [
        {
          "internalType": "uint256",
          "name": "_balance",
          "type": "uint256"
        }
      ],
      "stateMutability": "view",
      "type": "function"
    },
    {
      "inputs": [],
      "name": "balanceGHO",
      "outputs": [
        {
          "internalType": "uint256",
          "name": "_balance",
          "type": "uint256"
        }
      ],
      "stateMutability": "view",
      "type": "function"
    },
    {
      "inputs": [],
      "name": "depositETH",
      "outputs": [],
      "stateMutability": "payable",
      "type": "function"
    },
    {
      "inputs": [
        {
          "internalType": "uint256",
          "name": "_amount",
          "type": "uint256"
        }
      ],
      "name": "depositGHO",
      "outputs": [],
      "stateMutability": "nonpayable",
      "type": "function"
    },
    {
      "inputs": [
        {
          "internalType": "uint256",
          "name": "_signatoryIndex",
          "type": "uint256"
        }
      ],
      "name": "getSignatoryHash",
      "outputs": [
        {
          "internalType": "bytes32",
          "name": "",
          "type": "bytes32"
        }
      ],
      "stateMutability": "view",
      "type": "function"
    },
    {
      "inputs": [
        {
          "internalType": "uint256",
          "name": "_transactionIndex",
          "type": "uint256"
        }
      ],
      "name": "getTransactionHash",
      "outputs": [
        {
          "internalType": "bytes32",
          "name": "",
          "type": "bytes32"
        }
      ],
      "stateMutability": "view",
      "type": "function"
    },
    {
      "inputs": [],
      "name": "removeSignatory",
      "outputs": [],
      "stateMutability": "nonpayable",
      "type": "function"
    },
    {
      "inputs": [],
      "name": "requiredConfirmations",
      "outputs": [
        {
          "internalType": "uint256",
          "name": "",
          "type": "uint256"
        }
      ],
      "stateMutability": "view",
      "type": "function"
    },
    {
      "inputs": [
        {
          "internalType": "uint256",
          "name": "_signatoryIndex",
          "type": "uint256"
        }
      ],
      "name": "revokeSignatorySignature",
      "outputs": [],
      "stateMutability": "nonpayable",
      "type": "function"
    },
    {
      "inputs": [
        {
          "internalType": "uint256",
          "name": "_transactionIndex",
          "type": "uint256"
        }
      ],
      "name": "revokeTransactionSignature",
      "outputs": [],
      "stateMutability": "nonpayable",
      "type": "function"
    },
    {
      "inputs": [
        {
          "internalType": "uint256",
          "name": "",
          "type": "uint256"
        }
      ],
      "name": "signatories",
      "outputs": [
        {
          "internalType": "address",
          "name": "",
          "type": "address"
        }
      ],
      "stateMutability": "view",
      "type": "function"
    },
    {
      "inputs": [
        {
          "internalType": "address",
          "name": "_to",
          "type": "address"
        },
        {
          "internalType": "uint256",
          "name": "_amount",
          "type": "uint256"
        }
      ],
      "name": "submitTransaction",
      "outputs": [],
      "stateMutability": "nonpayable",
      "type": "function"
    },
    {
      "inputs": [
        {
          "internalType": "address",
          "name": "_sender",
          "type": "address"
        },
        {
          "internalType": "uint256",
          "name": "_signatoryIndex",
          "type": "uint256"
        },
        {
          "internalType": "bytes",
          "name": "_sig",
          "type": "bytes"
        }
      ],
      "name": "verifySignatory",
      "outputs": [
        {
          "internalType": "bool",
          "name": "check",
          "type": "bool"
        }
      ],
      "stateMutability": "nonpayable",
      "type": "function"
    },
    {
      "inputs": [
        {
          "internalType": "address",
          "name": "_sender",
          "type": "address"
        },
        {
          "internalType": "uint256",
          "name": "_transactionIndex",
          "type": "uint256"
        },
        {
          "internalType": "bytes",
          "name": "_sig",
          "type": "bytes"
        }
      ],
      "name": "verifyTransaction",
      "outputs": [
        {
          "internalType": "bool",
          "name": "check",
          "type": "bool"
        }
      ],
      "stateMutability": "nonpayable",
      "type": "function"
    },
    {
      "inputs": [],
      "name": "viewStagedSignatories",
      "outputs": [
        {
          "components": [
            {
              "internalType": "address",
              "name": "sigAddress",
              "type": "address"
            },
            {
              "internalType": "bool",
              "name": "confirmed",
              "type": "bool"
            },
            {
              "internalType": "uint256",
              "name": "confirmationsCount",
              "type": "uint256"
            }
          ],
          "internalType": "struct ghomultisig.NewSignatory[]",
          "name": "",
          "type": "tuple[]"
        }
      ],
      "stateMutability": "view",
      "type": "function"
    },
    {
      "inputs": [],
      "name": "viewStagedTransactions",
      "outputs": [
        {
          "components": [
            {
              "internalType": "address",
              "name": "to",
              "type": "address"
            },
            {
              "internalType": "uint256",
              "name": "amount",
              "type": "uint256"
            },
            {
              "internalType": "bool",
              "name": "executed",
              "type": "bool"
            },
            {
              "internalType": "uint256",
              "name": "confirmationsCount",
              "type": "uint256"
            }
          ],
          "internalType": "struct ghomultisig.Transaction[]",
          "name": "",
          "type": "tuple[]"
        }
      ],
      "stateMutability": "view",
      "type": "function"
    }
  ],
  "bytecode": "0x60806040523480156200001157600080fd5b50604051620043903803806200439083398181016040528101906200003791906200054c565b73c4bf5cbdabe595361438f8c6a187bdc330539c606000806101000a81548173ffffffffffffffffffffffffffffffffffffffff021916908373ffffffffffffffffffffffffffffffffffffffff1602179055508082511015620000d2576040517f08c379a0000000000000000000000000000000000000000000000000000000008152600401620000c99062000613565b60405180910390fd5b6000811162000118576040517f08c379a00000000000000000000000000000000000000000000000000000000081526004016200010f90620006ab565b60405180910390fd5b60005b8251811015620003135760008382815181106200013d576200013c620006cd565b5b60200260200101519050600073ffffffffffffffffffffffffffffffffffffffff168173ffffffffffffffffffffffffffffffffffffffff1603620001b9576040517f08c379a0000000000000000000000000000000000000000000000000000000008152600401620001b0906200074c565b60405180910390fd5b600260008273ffffffffffffffffffffffffffffffffffffffff1673ffffffffffffffffffffffffffffffffffffffff16815260200190815260200160002060009054906101000a900460ff161562000249576040517f08c379a00000000000000000000000000000000000000000000000000000000081526004016200024090620007be565b60405180910390fd5b6001600260008373ffffffffffffffffffffffffffffffffffffffff1673ffffffffffffffffffffffffffffffffffffffff16815260200190815260200160002060006101000a81548160ff0219169083151502179055506001819080600181540180825580915050600190039060005260206000200160009091909190916101000a81548173ffffffffffffffffffffffffffffffffffffffff021916908373ffffffffffffffffffffffffffffffffffffffff1602179055505080806001019150506200011b565b50806003819055505050620007e0565b6000604051905090565b600080fd5b600080fd5b600080fd5b6000601f19601f8301169050919050565b7f4e487b7100000000000000000000000000000000000000000000000000000000600052604160045260246000fd5b62000387826200033c565b810181811067ffffffffffffffff82111715620003a957620003a86200034d565b5b80604052505050565b6000620003be62000323565b9050620003cc82826200037c565b919050565b600067ffffffffffffffff821115620003ef57620003ee6200034d565b5b602082029050602081019050919050565b600080fd5b600073ffffffffffffffffffffffffffffffffffffffff82169050919050565b6000620004328262000405565b9050919050565b620004448162000425565b81146200045057600080fd5b50565b600081519050620004648162000439565b92915050565b6000620004816200047b84620003d1565b620003b2565b90508083825260208201905060208402830185811115620004a757620004a662000400565b5b835b81811015620004d45780620004bf888262000453565b845260208401935050602081019050620004a9565b5050509392505050565b600082601f830112620004f657620004f562000337565b5b8151620005088482602086016200046a565b91505092915050565b6000819050919050565b620005268162000511565b81146200053257600080fd5b50565b60008151905062000546816200051b565b92915050565b600080604083850312156200056657620005656200032d565b5b600083015167ffffffffffffffff81111562000587576200058662000332565b5b6200059585828601620004de565b9250506020620005a88582860162000535565b9150509250929050565b600082825260208201905092915050565b7f4e6f7420656e6f756768207369676e61746f7269657300000000000000000000600082015250565b6000620005fb601683620005b2565b91506200060882620005c3565b602082019050919050565b600060208201905081810360008301526200062e81620005ec565b9050919050565b7f4d7573742068617665206174206c65617374203120726571756972656420636f60008201527f6e6669726d6174696f6e00000000000000000000000000000000000000000000602082015250565b600062000693602a83620005b2565b9150620006a08262000635565b604082019050919050565b60006020820190508181036000830152620006c68162000684565b9050919050565b7f4e487b7100000000000000000000000000000000000000000000000000000000600052603260045260246000fd5b7f496e76616c6964207369676e61746f7279000000000000000000000000000000600082015250565b600062000734601183620005b2565b91506200074182620006fc565b602082019050919050565b60006020820190508181036000830152620007678162000725565b9050919050565b7f5369676e61746f7279206e6f7420756e69717565000000000000000000000000600082015250565b6000620007a6601483620005b2565b9150620007b3826200076e565b602082019050919050565b60006020820190508181036000830152620007d98162000797565b9050919050565b613ba080620007f06000396000f3fe6080604052600436106100fe5760003560e01c806385e3bb6211610095578063daa5dc3a11610064578063daa5dc3a14610345578063e0061bf014610370578063e05a7edf14610399578063ecbdbb32146103c4578063f6326fb3146103ef576100fe565b806385e3bb6214610251578063a685bb421461028e578063c4acec47146102cb578063cdb9df6b14610308576100fe565b806321dd877f116100d157806321dd877f146101a95780637709b6ab146101d25780637c367a5b146101fb57806382e717f714610226576100fe565b80630c921ea61461010357806310aa1e341461012c57806311134384146101435780631d43b65314610180575b600080fd5b34801561010f57600080fd5b5061012a60048036038101906101259190612ac9565b6103f9565b005b34801561013857600080fd5b5061014161065c565b005b34801561014f57600080fd5b5061016a60048036038101906101659190612ac9565b610c93565b6040516101779190612b0f565b60405180910390f35b34801561018c57600080fd5b506101a760048036038101906101a29190612b88565b610de9565b005b3480156101b557600080fd5b506101d060048036038101906101cb9190612bc8565b6110d4565b005b3480156101de57600080fd5b506101f960048036038101906101f49190612ac9565b611557565b005b34801561020757600080fd5b50610210611722565b60405161021d9190612c04565b60405180910390f35b34801561023257600080fd5b5061023b6117c4565b6040516102489190612c04565b60405180910390f35b34801561025d57600080fd5b5061027860048036038101906102739190612d65565b6117ca565b6040516102859190612def565b60405180910390f35b34801561029a57600080fd5b506102b560048036038101906102b09190612d65565b611ad0565b6040516102c29190612def565b60405180910390f35b3480156102d757600080fd5b506102f260048036038101906102ed9190612ac9565b611fc1565b6040516102ff9190612b0f565b60405180910390f35b34801561031457600080fd5b5061032f600480360381019061032a9190612ac9565b612083565b60405161033c9190612e19565b60405180910390f35b34801561035157600080fd5b5061035a6120c2565b6040516103679190612f52565b60405180910390f35b34801561037c57600080fd5b5061039760048036038101906103929190612ac9565b612228565b005b3480156103a557600080fd5b506103ae61248b565b6040516103bb9190613078565b60405180910390f35b3480156103d057600080fd5b506103d96125fb565b6040516103e69190612c04565b60405180910390f35b6103f7612603565b005b600260003373ffffffffffffffffffffffffffffffffffffffff1673ffffffffffffffffffffffffffffffffffffffff16815260200190815260200160002060009054906101000a900460ff16610485576040517f08c379a000000000000000000000000000000000000000000000000000000000815260040161047c906130f7565b60405180910390fd5b60068054905081106104cc576040517f08c379a00000000000000000000000000000000000000000000000000000000081526004016104c390613163565b60405180910390fd5b6000600682815481106104e2576104e1613183565b5b906000526020600020906002020190506007600083815260200190815260200160002060003373ffffffffffffffffffffffffffffffffffffffff1673ffffffffffffffffffffffffffffffffffffffff16815260200190815260200160002060009054906101000a900460ff1661058f576040517f08c379a0000000000000000000000000000000000000000000000000000000008152600401610586906131fe565b60405180910390fd5b60018160010160008282546105a4919061324d565b9250508190555060006007600084815260200190815260200160002060003373ffffffffffffffffffffffffffffffffffffffff1673ffffffffffffffffffffffffffffffffffffffff16815260200190815260200160002060006101000a81548160ff021916908315150217905550813373ffffffffffffffffffffffffffffffffffffffff167f15449871dba2c2af70c3fb383f7fe473b2132205aa096f56bc7be49702af868060405160405180910390a35050565b600260003373ffffffffffffffffffffffffffffffffffffffff1673ffffffffffffffffffffffffffffffffffffffff16815260200190815260200160002060009054906101000a900460ff166106e8576040517f08c379a00000000000000000000000000000000000000000000000000000000081526004016106df906130f7565b60405180910390fd5b600180805490501161072f576040517f08c379a0000000000000000000000000000000000000000000000000000000008152600401610726906132cd565b60405180910390fd5b6000600260003373ffffffffffffffffffffffffffffffffffffffff1673ffffffffffffffffffffffffffffffffffffffff16815260200190815260200160002060006101000a81548160ff02191690831515021790555060005b60018054905081101561090b573373ffffffffffffffffffffffffffffffffffffffff16600182815481106107c2576107c1613183565b5b9060005260206000200160009054906101000a900473ffffffffffffffffffffffffffffffffffffffff1673ffffffffffffffffffffffffffffffffffffffff16036108fe57600180808054905061081a919061324d565b8154811061082b5761082a613183565b5b9060005260206000200160009054906101000a900473ffffffffffffffffffffffffffffffffffffffff166001828154811061086a57610869613183565b5b9060005260206000200160006101000a81548173ffffffffffffffffffffffffffffffffffffffff021916908373ffffffffffffffffffffffffffffffffffffffff16021790555060018054806108c4576108c36132ed565b5b6001900381819060005260206000200160006101000a81549073ffffffffffffffffffffffffffffffffffffffff0219169055905561090b565b808060010191505061078a565b5060016003600082825461091f919061324d565b925050819055503373ffffffffffffffffffffffffffffffffffffffff167f553a088f09aece60cea31533978e7260c31a7af06cfa227e8923d693164a343060035460405161096e9190612c04565b60405180910390a23373ffffffffffffffffffffffffffffffffffffffff167f7888dd771886421c525994f3a19ceddff8f41645edeca4237e909cc81f06bd2760405160405180910390a260005b600480549050811015610b24576005600082815260200190815260200160002060003373ffffffffffffffffffffffffffffffffffffffff1673ffffffffffffffffffffffffffffffffffffffff16815260200190815260200160002060009054906101000a900460ff1615610b1757600160048281548110610a4257610a41613183565b5b90600052602060002090600402016003016000828254610a62919061324d565b9250508190555060006005600083815260200190815260200160002060003373ffffffffffffffffffffffffffffffffffffffff1673ffffffffffffffffffffffffffffffffffffffff16815260200190815260200160002060006101000a81548160ff021916908315150217905550803373ffffffffffffffffffffffffffffffffffffffff167fa0ca77841b8e1ba52a755725b8bc196d0945d7f92892fd1f9e47a4005cdf1b9860405160405180910390a35b80806001019150506109bc565b5060005b600680549050811015610c90576007600082815260200190815260200160002060003373ffffffffffffffffffffffffffffffffffffffff1673ffffffffffffffffffffffffffffffffffffffff16815260200190815260200160002060009054906101000a900460ff1615610c8357600160068281548110610bae57610bad613183565b5b90600052602060002090600202016001016000828254610bce919061324d565b9250508190555060006007600083815260200190815260200160002060003373ffffffffffffffffffffffffffffffffffffffff1673ffffffffffffffffffffffffffffffffffffffff16815260200190815260200160002060006101000a81548160ff021916908315150217905550803373ffffffffffffffffffffffffffffffffffffffff167f15449871dba2c2af70c3fb383f7fe473b2132205aa096f56bc7be49702af868060405160405180910390a35b8080600101915050610b28565b50565b6000600260003373ffffffffffffffffffffffffffffffffffffffff1673ffffffffffffffffffffffffffffffffffffffff16815260200190815260200160002060009054906101000a900460ff16610d21576040517f08c379a0000000000000000000000000000000000000000000000000000000008152600401610d18906130f7565b60405180910390fd5b6004805490508210610d68576040517f08c379a0000000000000000000000000000000000000000000000000000000008152600401610d5f90613368565b60405180910390fd5b600060048381548110610d7e57610d7d613183565b5b906000526020600020906004020190508060000160009054906101000a900473ffffffffffffffffffffffffffffffffffffffff16816001015484604051602001610dcb939291906133f1565b60405160208183030381529060405280519060200120915050919050565b600260003373ffffffffffffffffffffffffffffffffffffffff1673ffffffffffffffffffffffffffffffffffffffff16815260200190815260200160002060009054906101000a900460ff16610e75576040517f08c379a0000000000000000000000000000000000000000000000000000000008152600401610e6c906130f7565b60405180910390fd5b600073ffffffffffffffffffffffffffffffffffffffff168273ffffffffffffffffffffffffffffffffffffffff1603610ee4576040517f08c379a0000000000000000000000000000000000000000000000000000000008152600401610edb9061347a565b60405180910390fd5b60008111610f27576040517f08c379a0000000000000000000000000000000000000000000000000000000008152600401610f1e906134e6565b60405180910390fd5b60006004805490509050600460018160018154018082558091505003906000526020600020905050600060048281548110610f6557610f64613183565b5b90600052602060002090600402019050838160000160006101000a81548173ffffffffffffffffffffffffffffffffffffffff021916908373ffffffffffffffffffffffffffffffffffffffff16021790555082816001018190555060008160020160006101000a81548160ff0219169083151502179055506001816003018190555060016005600084815260200190815260200160002060003373ffffffffffffffffffffffffffffffffffffffff1673ffffffffffffffffffffffffffffffffffffffff16815260200190815260200160002060006101000a81548160ff0219169083151502179055508373ffffffffffffffffffffffffffffffffffffffff16823373ffffffffffffffffffffffffffffffffffffffff167fcd144288a078b7562351164feb1762115faca27f30827b4142f2bbe27166e320866040516110af9190612c04565b60405180910390a46003548160030154036110ce576110cd826126ee565b5b50505050565b600260003373ffffffffffffffffffffffffffffffffffffffff1673ffffffffffffffffffffffffffffffffffffffff16815260200190815260200160002060009054906101000a900460ff16611160576040517f08c379a0000000000000000000000000000000000000000000000000000000008152600401611157906130f7565b60405180910390fd5b600260008273ffffffffffffffffffffffffffffffffffffffff1673ffffffffffffffffffffffffffffffffffffffff16815260200190815260200160002060009054906101000a900460ff16156111ed576040517f08c379a00000000000000000000000000000000000000000000000000000000081526004016111e490613552565b60405180910390fd5b600073ffffffffffffffffffffffffffffffffffffffff168173ffffffffffffffffffffffffffffffffffffffff160361125c576040517f08c379a0000000000000000000000000000000000000000000000000000000008152600401611253906135be565b60405180910390fd5b60018080549050036113d5576001600260008373ffffffffffffffffffffffffffffffffffffffff1673ffffffffffffffffffffffffffffffffffffffff16815260200190815260200160002060006101000a81548160ff0219169083151502179055506001819080600181540180825580915050600190039060005260206000200160009091909190916101000a81548173ffffffffffffffffffffffffffffffffffffffff021916908373ffffffffffffffffffffffffffffffffffffffff16021790555060016003600082825461133691906135de565b925050819055508073ffffffffffffffffffffffffffffffffffffffff167fafa2fee17ecbc1c3858c3cfc3c928683189c429a4a7d3d1734abeaca03986aa160405160405180910390a23373ffffffffffffffffffffffffffffffffffffffff167f2ccb3a457aa93d20522516925bd748e3af1575d72225ff1439460468d1b5be3a6003546040516113c89190612c04565b60405180910390a2611554565b6000600680549050905060066001816001815401808255809150500390600052602060002090505060006006828154811061141357611412613183565b5b90600052602060002090600202019050828160000160006101000a81548173ffffffffffffffffffffffffffffffffffffffff021916908373ffffffffffffffffffffffffffffffffffffffff16021790555060016007600084815260200190815260200160002060003373ffffffffffffffffffffffffffffffffffffffff1673ffffffffffffffffffffffffffffffffffffffff16815260200190815260200160002060006101000a81548160ff0219169083151502179055506001816001018190555060008160000160146101000a81548160ff021916908315150217905550818373ffffffffffffffffffffffffffffffffffffffff163373ffffffffffffffffffffffffffffffffffffffff167f771a44a31dd5bf98346299ca49f404d2bf6798fa74b3a69e04c5192e682677a760405160405180910390a450505b50565b60008054906101000a900473ffffffffffffffffffffffffffffffffffffffff1673ffffffffffffffffffffffffffffffffffffffff166323b872dd3330846040518463ffffffff1660e01b81526004016115b493929190613612565b6020604051808303816000875af11580156115d3573d6000803e3d6000fd5b505050506040513d601f19601f820116820180604052508101906115f79190613675565b611636576040517f08c379a000000000000000000000000000000000000000000000000000000000815260040161162d906136ee565b60405180910390fd5b3373ffffffffffffffffffffffffffffffffffffffff167f90890809c654f11d6e72a28fa60149770a0d11ec6c92319d6ceb2bb0a4ea1a158260008054906101000a900473ffffffffffffffffffffffffffffffffffffffff1673ffffffffffffffffffffffffffffffffffffffff166370a08231306040518263ffffffff1660e01b81526004016116c89190612e19565b602060405180830381865afa1580156116e5573d6000803e3d6000fd5b505050506040513d601f19601f820116820180604052508101906117099190613723565b604051611717929190613750565b60405180910390a250565b60008060009054906101000a900473ffffffffffffffffffffffffffffffffffffffff1673ffffffffffffffffffffffffffffffffffffffff166370a08231306040518263ffffffff1660e01b815260040161177e9190612e19565b602060405180830381865afa15801561179b573d6000803e3d6000fd5b505050506040513d601f19601f820116820180604052508101906117bf9190613723565b905090565b60035481565b6000600260003373ffffffffffffffffffffffffffffffffffffffff1673ffffffffffffffffffffffffffffffffffffffff16815260200190815260200160002060009054906101000a900460ff16611858576040517f08c379a000000000000000000000000000000000000000000000000000000000815260040161184f906130f7565b60405180910390fd5b600073ffffffffffffffffffffffffffffffffffffffff168473ffffffffffffffffffffffffffffffffffffffff16036118c7576040517f08c379a00000000000000000000000000000000000000000000000000000000081526004016118be9061347a565b60405180910390fd5b6005600084815260200190815260200160002060008573ffffffffffffffffffffffffffffffffffffffff1673ffffffffffffffffffffffffffffffffffffffff16815260200190815260200160002060009054906101000a900460ff1615611965576040517f08c379a000000000000000000000000000000000000000000000000000000000815260040161195c906137c5565b60405180910390fd5b600061197084610c93565b9050600061197d82612978565b90508573ffffffffffffffffffffffffffffffffffffffff166119a082866129a8565b73ffffffffffffffffffffffffffffffffffffffff161492508215611ac7576000600486815481106119d5576119d4613183565b5b9060005260206000209060040201905060016005600088815260200190815260200160002060008973ffffffffffffffffffffffffffffffffffffffff1673ffffffffffffffffffffffffffffffffffffffff16815260200190815260200160002060006101000a81548160ff0219169083151502179055506001816003016000828254611a6391906135de565b92505081905550858773ffffffffffffffffffffffffffffffffffffffff167f31d9916a2168517fa75fd5fb97d9173b57a2ed17394da0856e4d3f74d322277560405160405180910390a3600354816003015403611ac557611ac4866126ee565b5b505b50509392505050565b6000600260003373ffffffffffffffffffffffffffffffffffffffff1673ffffffffffffffffffffffffffffffffffffffff16815260200190815260200160002060009054906101000a900460ff16611b5e576040517f08c379a0000000000000000000000000000000000000000000000000000000008152600401611b55906130f7565b60405180910390fd5b600073ffffffffffffffffffffffffffffffffffffffff168473ffffffffffffffffffffffffffffffffffffffff1603611bcd576040517f08c379a0000000000000000000000000000000000000000000000000000000008152600401611bc49061347a565b60405180910390fd5b6007600084815260200190815260200160002060008573ffffffffffffffffffffffffffffffffffffffff1673ffffffffffffffffffffffffffffffffffffffff16815260200190815260200160002060009054906101000a900460ff1615611c6b576040517f08c379a0000000000000000000000000000000000000000000000000000000008152600401611c62906137c5565b60405180910390fd5b6000611c7684611fc1565b90506000611c8382612978565b90508573ffffffffffffffffffffffffffffffffffffffff16611ca682866129a8565b73ffffffffffffffffffffffffffffffffffffffff161492508215611fb857600060068681548110611cdb57611cda613183565b5b9060005260206000209060020201905060016007600088815260200190815260200160002060008973ffffffffffffffffffffffffffffffffffffffff1673ffffffffffffffffffffffffffffffffffffffff16815260200190815260200160002060006101000a81548160ff0219169083151502179055506001816001016000828254611d6991906135de565b92505081905550858773ffffffffffffffffffffffffffffffffffffffff167f16c40163082e3a3e33b18937aa339fa7ed6ff002745a308fd348198c64588ef460405160405180910390a3600180549050816001015403611fb65760018160000160146101000a81548160ff0219169083151502179055506001600260008360000160009054906101000a900473ffffffffffffffffffffffffffffffffffffffff1673ffffffffffffffffffffffffffffffffffffffff1673ffffffffffffffffffffffffffffffffffffffff16815260200190815260200160002060006101000a81548160ff02191690831515021790555060018160000160009054906101000a900473ffffffffffffffffffffffffffffffffffffffff169080600181540180825580915050600190039060005260206000200160009091909190916101000a81548173ffffffffffffffffffffffffffffffffffffffff021916908373ffffffffffffffffffffffffffffffffffffffff160217905550600160036000828254611ef791906135de565b925050819055508673ffffffffffffffffffffffffffffffffffffffff167f2ccb3a457aa93d20522516925bd748e3af1575d72225ff1439460468d1b5be3a600354604051611f469190612c04565b60405180910390a28060000160009054906101000a900473ffffffffffffffffffffffffffffffffffffffff1673ffffffffffffffffffffffffffffffffffffffff167fafa2fee17ecbc1c3858c3cfc3c928683189c429a4a7d3d1734abeaca03986aa160405160405180910390a25b505b50509392505050565b6000600680549050821061200a576040517f08c379a000000000000000000000000000000000000000000000000000000000815260040161200190613163565b60405180910390fd5b6000600683815481106120205761201f613183565b5b906000526020600020906002020190508060000160009054906101000a900473ffffffffffffffffffffffffffffffffffffffff1660405160200161206591906137e5565b60405160208183030381529060405280519060200120915050919050565b6001818154811061209357600080fd5b906000526020600020016000915054906101000a900473ffffffffffffffffffffffffffffffffffffffff1681565b6060600260003373ffffffffffffffffffffffffffffffffffffffff1673ffffffffffffffffffffffffffffffffffffffff16815260200190815260200160002060009054906101000a900460ff16612150576040517f08c379a0000000000000000000000000000000000000000000000000000000008152600401612147906130f7565b60405180910390fd5b6006805480602002602001604051908101604052809291908181526020016000905b8282101561221f57838290600052602060002090600202016040518060600160405290816000820160009054906101000a900473ffffffffffffffffffffffffffffffffffffffff1673ffffffffffffffffffffffffffffffffffffffff1673ffffffffffffffffffffffffffffffffffffffff1681526020016000820160149054906101000a900460ff1615151515815260200160018201548152505081526020019060010190612172565b50505050905090565b600260003373ffffffffffffffffffffffffffffffffffffffff1673ffffffffffffffffffffffffffffffffffffffff16815260200190815260200160002060009054906101000a900460ff166122b4576040517f08c379a00000000000000000000000000000000000000000000000000000000081526004016122ab906130f7565b60405180910390fd5b60048054905081106122fb576040517f08c379a00000000000000000000000000000000000000000000000000000000081526004016122f290613368565b60405180910390fd5b60006004828154811061231157612310613183565b5b906000526020600020906004020190506005600083815260200190815260200160002060003373ffffffffffffffffffffffffffffffffffffffff1673ffffffffffffffffffffffffffffffffffffffff16815260200190815260200160002060009054906101000a900460ff166123be576040517f08c379a00000000000000000000000000000000000000000000000000000000081526004016123b59061384c565b60405180910390fd5b60018160030160008282546123d3919061324d565b9250508190555060006005600084815260200190815260200160002060003373ffffffffffffffffffffffffffffffffffffffff1673ffffffffffffffffffffffffffffffffffffffff16815260200190815260200160002060006101000a81548160ff021916908315150217905550813373ffffffffffffffffffffffffffffffffffffffff167fa0ca77841b8e1ba52a755725b8bc196d0945d7f92892fd1f9e47a4005cdf1b9860405160405180910390a35050565b6060600260003373ffffffffffffffffffffffffffffffffffffffff1673ffffffffffffffffffffffffffffffffffffffff16815260200190815260200160002060009054906101000a900460ff16612519576040517f08c379a0000000000000000000000000000000000000000000000000000000008152600401612510906130f7565b60405180910390fd5b6004805480602002602001604051908101604052809291908181526020016000905b828210156125f257838290600052602060002090600402016040518060800160405290816000820160009054906101000a900473ffffffffffffffffffffffffffffffffffffffff1673ffffffffffffffffffffffffffffffffffffffff1673ffffffffffffffffffffffffffffffffffffffff168152602001600182015481526020016002820160009054906101000a900460ff161515151581526020016003820154815250508152602001906001019061253b565b50505050905090565b600047905090565b3373ffffffffffffffffffffffffffffffffffffffff167f90890809c654f11d6e72a28fa60149770a0d11ec6c92319d6ceb2bb0a4ea1a153460008054906101000a900473ffffffffffffffffffffffffffffffffffffffff1673ffffffffffffffffffffffffffffffffffffffff166370a08231306040518263ffffffff1660e01b81526004016126959190612e19565b602060405180830381865afa1580156126b2573d6000803e3d6000fd5b505050506040513d601f19601f820116820180604052508101906126d69190613723565b6040516126e4929190613750565b60405180910390a2565b60048054905081106126ff57600080fd5b60006004828154811061271557612714613183565b5b906000526020600020906004020190508060010154612732611722565b1015612773576040517f08c379a000000000000000000000000000000000000000000000000000000000815260040161276a906138de565b60405180910390fd5b8060020160009054906101000a900460ff16156127c5576040517f08c379a00000000000000000000000000000000000000000000000000000000081526004016127bc9061394a565b60405180910390fd5b6003548160030154101561280e576040517f08c379a0000000000000000000000000000000000000000000000000000000008152600401612805906139b6565b60405180910390fd5b60008054906101000a900473ffffffffffffffffffffffffffffffffffffffff1673ffffffffffffffffffffffffffffffffffffffff1663a9059cbb8260000160009054906101000a900473ffffffffffffffffffffffffffffffffffffffff1683600101546040518363ffffffff1660e01b81526004016128919291906139d6565b6020604051808303816000875af11580156128b0573d6000803e3d6000fd5b505050506040513d601f19601f820116820180604052508101906128d49190613675565b612913576040517f08c379a000000000000000000000000000000000000000000000000000000000815260040161290a906136ee565b60405180910390fd5b60018160020160006101000a81548160ff021916908315150217905550813373ffffffffffffffffffffffffffffffffffffffff167f5445f318f4f5fcfb66592e68e0cc5822aa15664039bd5f0ffde24c5a8142b1ac60405160405180910390a35050565b60008160405160200161298b9190613a77565b604051602081830303815290604052805190602001209050919050565b6000806000806129b785612a17565b925092509250600186828585604051600081526020016040526040516129e09493929190613ab9565b6020604051602081039080840390855afa158015612a02573d6000803e3d6000fd5b50505060206040510351935050505092915050565b60008060006041845114612a60576040517f08c379a0000000000000000000000000000000000000000000000000000000008152600401612a5790613b4a565b60405180910390fd5b6020840151925060408401519150606084015160001a90509193909250565b6000604051905090565b600080fd5b600080fd5b6000819050919050565b612aa681612a93565b8114612ab157600080fd5b50565b600081359050612ac381612a9d565b92915050565b600060208284031215612adf57612ade612a89565b5b6000612aed84828501612ab4565b91505092915050565b6000819050919050565b612b0981612af6565b82525050565b6000602082019050612b246000830184612b00565b92915050565b600073ffffffffffffffffffffffffffffffffffffffff82169050919050565b6000612b5582612b2a565b9050919050565b612b6581612b4a565b8114612b7057600080fd5b50565b600081359050612b8281612b5c565b92915050565b60008060408385031215612b9f57612b9e612a89565b5b6000612bad85828601612b73565b9250506020612bbe85828601612ab4565b9150509250929050565b600060208284031215612bde57612bdd612a89565b5b6000612bec84828501612b73565b91505092915050565b612bfe81612a93565b82525050565b6000602082019050612c196000830184612bf5565b92915050565b600080fd5b600080fd5b6000601f19601f8301169050919050565b7f4e487b7100000000000000000000000000000000000000000000000000000000600052604160045260246000fd5b612c7282612c29565b810181811067ffffffffffffffff82111715612c9157612c90612c3a565b5b80604052505050565b6000612ca4612a7f565b9050612cb08282612c69565b919050565b600067ffffffffffffffff821115612cd057612ccf612c3a565b5b612cd982612c29565b9050602081019050919050565b82818337600083830152505050565b6000612d08612d0384612cb5565b612c9a565b905082815260208101848484011115612d2457612d23612c24565b5b612d2f848285612ce6565b509392505050565b600082601f830112612d4c57612d4b612c1f565b5b8135612d5c848260208601612cf5565b91505092915050565b600080600060608486031215612d7e57612d7d612a89565b5b6000612d8c86828701612b73565b9350506020612d9d86828701612ab4565b925050604084013567ffffffffffffffff811115612dbe57612dbd612a8e565b5b612dca86828701612d37565b9150509250925092565b60008115159050919050565b612de981612dd4565b82525050565b6000602082019050612e046000830184612de0565b92915050565b612e1381612b4a565b82525050565b6000602082019050612e2e6000830184612e0a565b92915050565b600081519050919050565b600082825260208201905092915050565b6000819050602082019050919050565b612e6981612b4a565b82525050565b612e7881612dd4565b82525050565b612e8781612a93565b82525050565b606082016000820151612ea36000850182612e60565b506020820151612eb66020850182612e6f565b506040820151612ec96040850182612e7e565b50505050565b6000612edb8383612e8d565b60608301905092915050565b6000602082019050919050565b6000612eff82612e34565b612f098185612e3f565b9350612f1483612e50565b8060005b83811015612f45578151612f2c8882612ecf565b9750612f3783612ee7565b925050600181019050612f18565b5085935050505092915050565b60006020820190508181036000830152612f6c8184612ef4565b905092915050565b600081519050919050565b600082825260208201905092915050565b6000819050602082019050919050565b608082016000820151612fb66000850182612e60565b506020820151612fc96020850182612e7e565b506040820151612fdc6040850182612e6f565b506060820151612fef6060850182612e7e565b50505050565b60006130018383612fa0565b60808301905092915050565b6000602082019050919050565b600061302582612f74565b61302f8185612f7f565b935061303a83612f90565b8060005b8381101561306b5781516130528882612ff5565b975061305d8361300d565b92505060018101905061303e565b5085935050505092915050565b60006020820190508181036000830152613092818461301a565b905092915050565b600082825260208201905092915050565b7f4e6f742061207369676e61746f72790000000000000000000000000000000000600082015250565b60006130e1600f8361309a565b91506130ec826130ab565b602082019050919050565b60006020820190508181036000830152613110816130d4565b9050919050565b7f5369676e61746f727920696e646578206f7574206f6620626f756e6473000000600082015250565b600061314d601d8361309a565b915061315882613117565b602082019050919050565b6000602082019050818103600083015261317c81613140565b9050919050565b7f4e487b7100000000000000000000000000000000000000000000000000000000600052603260045260246000fd5b7f5369676e61746f7279206e6f74207369676e65642062792073656e6465720000600082015250565b60006131e8601e8361309a565b91506131f3826131b2565b602082019050919050565b60006020820190508181036000830152613217816131db565b9050919050565b7f4e487b7100000000000000000000000000000000000000000000000000000000600052601160045260246000fd5b600061325882612a93565b915061326383612a93565b925082820390508181111561327b5761327a61321e565b5b92915050565b7f43616e6e6f742072656d6f7665206c617374207369676e61746f727900000000600082015250565b60006132b7601c8361309a565b91506132c282613281565b602082019050919050565b600060208201905081810360008301526132e6816132aa565b9050919050565b7f4e487b7100000000000000000000000000000000000000000000000000000000600052603160045260246000fd5b7f5472616e73616374696f6e20696e646578206f7574206f6620626f756e647300600082015250565b6000613352601f8361309a565b915061335d8261331c565b602082019050919050565b6000602082019050818103600083015261338181613345565b9050919050565b60008160601b9050919050565b60006133a082613388565b9050919050565b60006133b282613395565b9050919050565b6133ca6133c582612b4a565b6133a7565b82525050565b6000819050919050565b6133eb6133e682612a93565b6133d0565b82525050565b60006133fd82866133b9565b60148201915061340d82856133da565b60208201915061341d82846133da565b602082019150819050949350505050565b7f496e76616c696420616464726573730000000000000000000000000000000000600082015250565b6000613464600f8361309a565b915061346f8261342e565b602082019050919050565b6000602082019050818103600083015261349381613457565b9050919050565b7f496e76616c696420616d6f756e74000000000000000000000000000000000000600082015250565b60006134d0600e8361309a565b91506134db8261349a565b602082019050919050565b600060208201905081810360008301526134ff816134c3565b9050919050565b7f4164647265737320697320616c72656164792061207369676e61746f72790000600082015250565b600061353c601e8361309a565b915061354782613506565b602082019050919050565b6000602082019050818103600083015261356b8161352f565b9050919050565b7f496e76616c6964207369676e61746f7279000000000000000000000000000000600082015250565b60006135a860118361309a565b91506135b382613572565b602082019050919050565b600060208201905081810360008301526135d78161359b565b9050919050565b60006135e982612a93565b91506135f483612a93565b925082820190508082111561360c5761360b61321e565b5b92915050565b60006060820190506136276000830186612e0a565b6136346020830185612e0a565b6136416040830184612bf5565b949350505050565b61365281612dd4565b811461365d57600080fd5b50565b60008151905061366f81613649565b92915050565b60006020828403121561368b5761368a612a89565b5b600061369984828501613660565b91505092915050565b7f5472616e73666572206661696c65640000000000000000000000000000000000600082015250565b60006136d8600f8361309a565b91506136e3826136a2565b602082019050919050565b60006020820190508181036000830152613707816136cb565b9050919050565b60008151905061371d81612a9d565b92915050565b60006020828403121561373957613738612a89565b5b60006137478482850161370e565b91505092915050565b60006040820190506137656000830185612bf5565b6137726020830184612bf5565b9392505050565b7f416c7265616479207369676e6564207769746820746869732061646472657373600082015250565b60006137af60208361309a565b91506137ba82613779565b602082019050919050565b600060208201905081810360008301526137de816137a2565b9050919050565b60006137f182846133b9565b60148201915081905092915050565b7f5472616e73616374696f6e206e6f74207369676e65642062792073656e646572600082015250565b600061383660208361309a565b915061384182613800565b602082019050919050565b6000602082019050818103600083015261386581613829565b9050919050565b7f496e73756666696369656e7420616d6f756e74206f6620746f6b656e7320696e60008201527f2077616c6c657400000000000000000000000000000000000000000000000000602082015250565b60006138c860278361309a565b91506138d38261386c565b604082019050919050565b600060208201905081810360008301526138f7816138bb565b9050919050565b7f5472616e73616374696f6e20616c726561647920657865637574656400000000600082015250565b6000613934601c8361309a565b915061393f826138fe565b602082019050919050565b6000602082019050818103600083015261396381613927565b9050919050565b7f496e73756666696369656e7420636f6e6669726d6174696f6e73000000000000600082015250565b60006139a0601a8361309a565b91506139ab8261396a565b602082019050919050565b600060208201905081810360008301526139cf81613993565b9050919050565b60006040820190506139eb6000830185612e0a565b6139f86020830184612bf5565b9392505050565b600081905092915050565b7f19457468657265756d205369676e6564204d6573736167653a0a333200000000600082015250565b6000613a40601c836139ff565b9150613a4b82613a0a565b601c82019050919050565b6000819050919050565b613a71613a6c82612af6565b613a56565b82525050565b6000613a8282613a33565b9150613a8e8284613a60565b60208201915081905092915050565b600060ff82169050919050565b613ab381613a9d565b82525050565b6000608082019050613ace6000830187612b00565b613adb6020830186613aaa565b613ae86040830185612b00565b613af56060830184612b00565b95945050505050565b7f496e76616c6964205369676e6174757265204c656e6774680000000000000000600082015250565b6000613b3460188361309a565b9150613b3f82613afe565b602082019050919050565b60006020820190508181036000830152613b6381613b27565b905091905056fea26469706673582212201a19b05b7d4e9f47f96f5b115a10546df0b3fe36900f97e8c4c9d1cbc66e462364736f6c63430008170033",
  "linkReferences": {},
  "deployedLinkReferences": {}
}