{
  "_format": "hh-sol-artifact-1",
  "contractName": "ghomultisig",
  "sourceName": "contracts/ghomultisig.sol",
  "abi": [
    {
      "inputs": [
        {
          "internalType": "address",
          "name": "_ghoTokenAddress",
          "type": "address"
        },
        {
          "internalType": "address[]",
          "name": "_signatories",
          "type": "address[]"
        },
        {
          "internalType": "uint256",
          "name": "_requiredConfirmations",
          "type": "uint256"
        }
      ],
      "stateMutability": "nonpayable",
      "type": "constructor"
    },
    {
      "anonymous": false,
      "inputs": [
        {
          "indexed": true,
          "internalType": "address",
          "name": "added",
          "type": "address"
        }
      ],
      "name": "AddSignatory",
      "type": "event"
    },
    {
      "anonymous": false,
      "inputs": [
        {
          "indexed": true,
          "internalType": "address",
          "name": "owner",
          "type": "address"
        },
        {
          "indexed": true,
          "internalType": "uint256",
          "name": "sigIndex",
          "type": "uint256"
        }
      ],
      "name": "ConfirmSignatory",
      "type": "event"
    },
    {
      "anonymous": false,
      "inputs": [
        {
          "indexed": true,
          "internalType": "address",
          "name": "owner",
          "type": "address"
        },
        {
          "indexed": true,
          "internalType": "uint256",
          "name": "txIndex",
          "type": "uint256"
        }
      ],
      "name": "ConfirmTransaction",
      "type": "event"
    },
    {
      "anonymous": false,
      "inputs": [
        {
          "indexed": true,
          "internalType": "address",
          "name": "owner",
          "type": "address"
        },
        {
          "indexed": true,
          "internalType": "uint256",
          "name": "txIndex",
          "type": "uint256"
        }
      ],
      "name": "ExecuteTransaction",
      "type": "event"
    },
    {
      "anonymous": false,
      "inputs": [
        {
          "indexed": true,
          "internalType": "address",
          "name": "owner",
          "type": "address"
        },
        {
          "indexed": false,
          "internalType": "uint256",
          "name": "requiredConfirmations",
          "type": "uint256"
        }
      ],
      "name": "IncreaseMinimumConfirmations",
      "type": "event"
    },
    {
      "anonymous": false,
      "inputs": [
        {
          "indexed": true,
          "internalType": "address",
          "name": "owner",
          "type": "address"
        },
        {
          "indexed": true,
          "internalType": "address",
          "name": "added",
          "type": "address"
        },
        {
          "indexed": true,
          "internalType": "uint256",
          "name": "signatoryIndex",
          "type": "uint256"
        }
      ],
      "name": "NewSignatoryInQueue",
      "type": "event"
    },
    {
      "anonymous": false,
      "inputs": [
        {
          "indexed": true,
          "internalType": "address",
          "name": "owner",
          "type": "address"
        },
        {
          "indexed": true,
          "internalType": "uint256",
          "name": "txIndex",
          "type": "uint256"
        },
        {
          "indexed": true,
          "internalType": "address",
          "name": "to",
          "type": "address"
        },
        {
          "indexed": false,
          "internalType": "uint256",
          "name": "amount",
          "type": "uint256"
        }
      ],
      "name": "SubmitTransaction",
      "type": "event"
    },
    {
      "inputs": [
        {
          "internalType": "address",
          "name": "_addedSignatory",
          "type": "address"
        }
      ],
      "name": "addSignatory",
      "outputs": [],
      "stateMutability": "nonpayable",
      "type": "function"
    },
    {
      "inputs": [],
      "name": "balance",
      "outputs": [
        {
          "internalType": "uint256",
          "name": "",
          "type": "uint256"
        }
      ],
      "stateMutability": "view",
      "type": "function"
    },
    {
      "inputs": [],
      "name": "balanceGHO",
      "outputs": [],
      "stateMutability": "nonpayable",
      "type": "function"
    },
    {
      "inputs": [
        {
          "internalType": "uint256",
          "name": "sigIndex",
          "type": "uint256"
        }
      ],
      "name": "confirmSignatory",
      "outputs": [],
      "stateMutability": "nonpayable",
      "type": "function"
    },
    {
      "inputs": [
        {
          "internalType": "uint256",
          "name": "_txIndex",
          "type": "uint256"
        }
      ],
      "name": "confirmTransaction",
      "outputs": [],
      "stateMutability": "nonpayable",
      "type": "function"
    },
    {
      "inputs": [
        {
          "internalType": "uint256",
          "name": "_txIndex",
          "type": "uint256"
        }
      ],
      "name": "executeTransaction",
      "outputs": [],
      "stateMutability": "nonpayable",
      "type": "function"
    },
    {
      "inputs": [],
      "name": "ghoToken",
      "outputs": [
        {
          "internalType": "contract IERC20",
          "name": "",
          "type": "address"
        }
      ],
      "stateMutability": "view",
      "type": "function"
    },
    {
      "inputs": [
        {
          "internalType": "address",
          "name": "",
          "type": "address"
        }
      ],
      "name": "isSignatory",
      "outputs": [
        {
          "internalType": "bool",
          "name": "",
          "type": "bool"
        }
      ],
      "stateMutability": "view",
      "type": "function"
    },
    {
      "inputs": [
        {
          "internalType": "uint256",
          "name": "",
          "type": "uint256"
        }
      ],
      "name": "newSignatories",
      "outputs": [
        {
          "internalType": "address",
          "name": "sigAddress",
          "type": "address"
        },
        {
          "internalType": "bool",
          "name": "confirmed",
          "type": "bool"
        },
        {
          "internalType": "uint256",
          "name": "confirmationsCount",
          "type": "uint256"
        }
      ],
      "stateMutability": "view",
      "type": "function"
    },
    {
      "inputs": [],
      "name": "requiredConfirmations",
      "outputs": [
        {
          "internalType": "uint256",
          "name": "",
          "type": "uint256"
        }
      ],
      "stateMutability": "view",
      "type": "function"
    },
    {
      "inputs": [
        {
          "internalType": "uint256",
          "name": "",
          "type": "uint256"
        }
      ],
      "name": "signatories",
      "outputs": [
        {
          "internalType": "address",
          "name": "",
          "type": "address"
        }
      ],
      "stateMutability": "view",
      "type": "function"
    },
    {
      "inputs": [
        {
          "internalType": "address",
          "name": "_to",
          "type": "address"
        },
        {
          "internalType": "uint256",
          "name": "_amount",
          "type": "uint256"
        }
      ],
      "name": "submitTransaction",
      "outputs": [],
      "stateMutability": "nonpayable",
      "type": "function"
    },
    {
      "inputs": [
        {
          "internalType": "uint256",
          "name": "",
          "type": "uint256"
        }
      ],
      "name": "transactions",
      "outputs": [
        {
          "internalType": "address",
          "name": "to",
          "type": "address"
        },
        {
          "internalType": "uint256",
          "name": "amount",
          "type": "uint256"
        },
        {
          "internalType": "bool",
          "name": "executed",
          "type": "bool"
        },
        {
          "internalType": "uint256",
          "name": "confirmationsCount",
          "type": "uint256"
        }
      ],
      "stateMutability": "view",
      "type": "function"
    }
  ],
  "bytecode": "0x60806040523480156200001157600080fd5b50604051620024bc380380620024bc8339818101604052810190620000379190620004f3565b826000806101000a81548173ffffffffffffffffffffffffffffffffffffffff021916908373ffffffffffffffffffffffffffffffffffffffff1602179055508082511015620000be576040517f08c379a0000000000000000000000000000000000000000000000000000000008152600401620000b590620005cf565b60405180910390fd5b60005b8251811015620002b9576000838281518110620000e357620000e2620005f1565b5b60200260200101519050600073ffffffffffffffffffffffffffffffffffffffff168173ffffffffffffffffffffffffffffffffffffffff16036200015f576040517f08c379a0000000000000000000000000000000000000000000000000000000008152600401620001569062000670565b60405180910390fd5b600360008273ffffffffffffffffffffffffffffffffffffffff1673ffffffffffffffffffffffffffffffffffffffff16815260200190815260200160002060009054906101000a900460ff1615620001ef576040517f08c379a0000000000000000000000000000000000000000000000000000000008152600401620001e690620006e2565b60405180910390fd5b6001600360008373ffffffffffffffffffffffffffffffffffffffff1673ffffffffffffffffffffffffffffffffffffffff16815260200190815260200160002060006101000a81548160ff0219169083151502179055506002819080600181540180825580915050600190039060005260206000200160009091909190916101000a81548173ffffffffffffffffffffffffffffffffffffffff021916908373ffffffffffffffffffffffffffffffffffffffff160217905550508080600101915050620000c1565b508060048190555050505062000704565b6000604051905090565b600080fd5b600080fd5b600073ffffffffffffffffffffffffffffffffffffffff82169050919050565b60006200030b82620002de565b9050919050565b6200031d81620002fe565b81146200032957600080fd5b50565b6000815190506200033d8162000312565b92915050565b600080fd5b6000601f19601f8301169050919050565b7f4e487b7100000000000000000000000000000000000000000000000000000000600052604160045260246000fd5b620003938262000348565b810181811067ffffffffffffffff82111715620003b557620003b462000359565b5b80604052505050565b6000620003ca620002ca565b9050620003d8828262000388565b919050565b600067ffffffffffffffff821115620003fb57620003fa62000359565b5b602082029050602081019050919050565b600080fd5b6000620004286200042284620003dd565b620003be565b905080838252602082019050602084028301858111156200044e576200044d6200040c565b5b835b818110156200047b57806200046688826200032c565b84526020840193505060208101905062000450565b5050509392505050565b600082601f8301126200049d576200049c62000343565b5b8151620004af84826020860162000411565b91505092915050565b6000819050919050565b620004cd81620004b8565b8114620004d957600080fd5b50565b600081519050620004ed81620004c2565b92915050565b6000806000606084860312156200050f576200050e620002d4565b5b60006200051f868287016200032c565b935050602084015167ffffffffffffffff811115620005435762000542620002d9565b5b620005518682870162000485565b92505060406200056486828701620004dc565b9150509250925092565b600082825260208201905092915050565b7f4e6f7420656e6f756768207369676e61746f7269657300000000000000000000600082015250565b6000620005b76016836200056e565b9150620005c4826200057f565b602082019050919050565b60006020820190508181036000830152620005ea81620005a8565b9050919050565b7f4e487b7100000000000000000000000000000000000000000000000000000000600052603260045260246000fd5b7f496e76616c6964207369676e61746f7279000000000000000000000000000000600082015250565b6000620006586011836200056e565b9150620006658262000620565b602082019050919050565b600060208201905081810360008301526200068b8162000649565b9050919050565b7f5369676e61746f7279206e6f7420756e69717565000000000000000000000000600082015250565b6000620006ca6014836200056e565b9150620006d78262000692565b602082019050919050565b60006020820190508181036000830152620006fd81620006bb565b9050919050565b611da880620007146000396000f3fe608060405234801561001057600080fd5b50600436106100cf5760003560e01c80639546a84e1161008c578063b69ef8a811610066578063b69ef8a814610203578063c01a8c8414610221578063cdb9df6b1461023d578063ee22610b1461026d576100cf565b80639546a84e1461016e5780639abd4dd9146101a05780639ace38c2146101d0576100cf565b80631d43b653146100d457806321dd877f146100f05780634f0001fa1461010c5780635996db91146101285780637c367a5b1461014657806382e717f714610150575b600080fd5b6100ee60048036038101906100e9919061156d565b610289565b005b61010a600480360381019061010591906115ad565b61041b565b005b610126600480360381019061012191906115da565b610890565b005b610130610d2a565b60405161013d9190611666565b60405180910390f35b61014e610d4e565b005b610158610e7c565b6040516101659190611690565b60405180910390f35b610188600480360381019061018391906115da565b610e82565b604051610197939291906116d5565b60405180910390f35b6101ba60048036038101906101b591906115ad565b610ee9565b6040516101c7919061170c565b60405180910390f35b6101ea60048036038101906101e591906115da565b610f09565b6040516101fa9493929190611727565b60405180910390f35b61020b610f76565b6040516102189190611690565b60405180910390f35b61023b600480360381019061023691906115da565b610f7c565b005b610257600480360381019061025291906115da565b6111cd565b604051610264919061176c565b60405180910390f35b610287600480360381019061028291906115da565b61120c565b005b600360003373ffffffffffffffffffffffffffffffffffffffff1673ffffffffffffffffffffffffffffffffffffffff16815260200190815260200160002060009054906101000a900460ff16610315576040517f08c379a000000000000000000000000000000000000000000000000000000000815260040161030c906117e4565b60405180910390fd5b6000600580549050905060056001816001815401808255809150500390600052602060002090505060006005828154811061035357610352611804565b5b90600052602060002090600502019050838160000160006101000a81548173ffffffffffffffffffffffffffffffffffffffff021916908373ffffffffffffffffffffffffffffffffffffffff1602179055508281600101819055508373ffffffffffffffffffffffffffffffffffffffff16823373ffffffffffffffffffffffffffffffffffffffff167fcd144288a078b7562351164feb1762115faca27f30827b4142f2bbe27166e3208660405161040d9190611690565b60405180910390a450505050565b600360003373ffffffffffffffffffffffffffffffffffffffff1673ffffffffffffffffffffffffffffffffffffffff16815260200190815260200160002060009054906101000a900460ff166104a7576040517f08c379a000000000000000000000000000000000000000000000000000000000815260040161049e906117e4565b60405180910390fd5b600360008273ffffffffffffffffffffffffffffffffffffffff1673ffffffffffffffffffffffffffffffffffffffff16815260200190815260200160002060009054906101000a900460ff1615610534576040517f08c379a000000000000000000000000000000000000000000000000000000000815260040161052b9061187f565b60405180910390fd5b600073ffffffffffffffffffffffffffffffffffffffff168173ffffffffffffffffffffffffffffffffffffffff16036105a3576040517f08c379a000000000000000000000000000000000000000000000000000000000815260040161059a906118eb565b60405180910390fd5b60016002805490500361071d576001600360008373ffffffffffffffffffffffffffffffffffffffff1673ffffffffffffffffffffffffffffffffffffffff16815260200190815260200160002060006101000a81548160ff0219169083151502179055506002819080600181540180825580915050600190039060005260206000200160009091909190916101000a81548173ffffffffffffffffffffffffffffffffffffffff021916908373ffffffffffffffffffffffffffffffffffffffff16021790555060016004600082825461067e919061193a565b925050819055508073ffffffffffffffffffffffffffffffffffffffff167fafa2fee17ecbc1c3858c3cfc3c928683189c429a4a7d3d1734abeaca03986aa160405160405180910390a23373ffffffffffffffffffffffffffffffffffffffff167f2ccb3a457aa93d20522516925bd748e3af1575d72225ff1439460468d1b5be3a6004546040516107109190611690565b60405180910390a261088d565b6000600680549050905060066001816001815401808255809150500390600052602060002090505060006006828154811061075b5761075a611804565b5b90600052602060002090600302019050828160000160006101000a81548173ffffffffffffffffffffffffffffffffffffffff021916908373ffffffffffffffffffffffffffffffffffffffff16021790555060018160010160003373ffffffffffffffffffffffffffffffffffffffff1673ffffffffffffffffffffffffffffffffffffffff16815260200190815260200160002060006101000a81548160ff0219169083151502179055506001816002018190555060008160000160146101000a81548160ff021916908315150217905550818373ffffffffffffffffffffffffffffffffffffffff163373ffffffffffffffffffffffffffffffffffffffff167f771a44a31dd5bf98346299ca49f404d2bf6798fa74b3a69e04c5192e682677a760405160405180910390a450505b50565b600360003373ffffffffffffffffffffffffffffffffffffffff1673ffffffffffffffffffffffffffffffffffffffff16815260200190815260200160002060009054906101000a900460ff1661091c576040517f08c379a0000000000000000000000000000000000000000000000000000000008152600401610913906117e4565b60405180910390fd5b6002805490508110610963576040517f08c379a000000000000000000000000000000000000000000000000000000000815260040161095a906119ba565b60405180910390fd5b60006006828154811061097957610978611804565b5b906000526020600020906003020190508060000160149054906101000a900460ff16156109db576040517f08c379a00000000000000000000000000000000000000000000000000000000081526004016109d290611a4c565b60405180910390fd5b8060010160003373ffffffffffffffffffffffffffffffffffffffff1673ffffffffffffffffffffffffffffffffffffffff16815260200190815260200160002060009054906101000a900460ff1615610a6a576040517f08c379a0000000000000000000000000000000000000000000000000000000008152600401610a6190611ade565b60405180910390fd5b60018160010160003373ffffffffffffffffffffffffffffffffffffffff1673ffffffffffffffffffffffffffffffffffffffff16815260200190815260200160002060006101000a81548160ff0219169083151502179055506001816002016000828254610ad9919061193a565b92505081905550813373ffffffffffffffffffffffffffffffffffffffff167f16c40163082e3a3e33b18937aa339fa7ed6ff002745a308fd348198c64588ef460405160405180910390a3600280549050816002015403610d265760018160000160146101000a81548160ff0219169083151502179055506001600360008360000160009054906101000a900473ffffffffffffffffffffffffffffffffffffffff1673ffffffffffffffffffffffffffffffffffffffff1673ffffffffffffffffffffffffffffffffffffffff16815260200190815260200160002060006101000a81548160ff02191690831515021790555060028160000160009054906101000a900473ffffffffffffffffffffffffffffffffffffffff169080600181540180825580915050600190039060005260206000200160009091909190916101000a81548173ffffffffffffffffffffffffffffffffffffffff021916908373ffffffffffffffffffffffffffffffffffffffff160217905550600160046000828254610c67919061193a565b925050819055503373ffffffffffffffffffffffffffffffffffffffff167f2ccb3a457aa93d20522516925bd748e3af1575d72225ff1439460468d1b5be3a600454604051610cb69190611690565b60405180910390a28060000160009054906101000a900473ffffffffffffffffffffffffffffffffffffffff1673ffffffffffffffffffffffffffffffffffffffff167fafa2fee17ecbc1c3858c3cfc3c928683189c429a4a7d3d1734abeaca03986aa160405160405180910390a25b5050565b60008054906101000a900473ffffffffffffffffffffffffffffffffffffffff1681565b600360003373ffffffffffffffffffffffffffffffffffffffff1673ffffffffffffffffffffffffffffffffffffffff16815260200190815260200160002060009054906101000a900460ff16610dda576040517f08c379a0000000000000000000000000000000000000000000000000000000008152600401610dd1906117e4565b60405180910390fd5b60008054906101000a900473ffffffffffffffffffffffffffffffffffffffff1673ffffffffffffffffffffffffffffffffffffffff166370a08231306040518263ffffffff1660e01b8152600401610e33919061176c565b602060405180830381865afa158015610e50573d6000803e3d6000fd5b505050506040513d601f19601f82011682018060405250810190610e749190611b13565b600181905550565b60045481565b60068181548110610e9257600080fd5b90600052602060002090600302016000915090508060000160009054906101000a900473ffffffffffffffffffffffffffffffffffffffff16908060000160149054906101000a900460ff16908060020154905083565b60036020528060005260406000206000915054906101000a900460ff1681565b60058181548110610f1957600080fd5b90600052602060002090600502016000915090508060000160009054906101000a900473ffffffffffffffffffffffffffffffffffffffff16908060010154908060020160009054906101000a900460ff16908060040154905084565b60015481565b600360003373ffffffffffffffffffffffffffffffffffffffff1673ffffffffffffffffffffffffffffffffffffffff16815260200190815260200160002060009054906101000a900460ff16611008576040517f08c379a0000000000000000000000000000000000000000000000000000000008152600401610fff906117e4565b60405180910390fd5b60006005828154811061101e5761101d611804565b5b906000526020600020906005020190508060020160009054906101000a900460ff1615611080576040517f08c379a000000000000000000000000000000000000000000000000000000000815260040161107790611b8c565b60405180910390fd5b8060030160003373ffffffffffffffffffffffffffffffffffffffff1673ffffffffffffffffffffffffffffffffffffffff16815260200190815260200160002060009054906101000a900460ff161561110f576040517f08c379a000000000000000000000000000000000000000000000000000000000815260040161110690611bf8565b60405180910390fd5b60018160030160003373ffffffffffffffffffffffffffffffffffffffff1673ffffffffffffffffffffffffffffffffffffffff16815260200190815260200160002060006101000a81548160ff021916908315150217905550600181600401600082825461117e919061193a565b92505081905550813373ffffffffffffffffffffffffffffffffffffffff167f5cbe105e36805f7820e291f799d5794ff948af2a5f664e580382defb6339004160405160405180910390a35050565b600281815481106111dd57600080fd5b906000526020600020016000915054906101000a900473ffffffffffffffffffffffffffffffffffffffff1681565b600360003373ffffffffffffffffffffffffffffffffffffffff1673ffffffffffffffffffffffffffffffffffffffff16815260200190815260200160002060009054906101000a900460ff16611298576040517f08c379a000000000000000000000000000000000000000000000000000000000815260040161128f906117e4565b60405180910390fd5b60058054905081106112a957600080fd5b6000600582815481106112bf576112be611804565b5b906000526020600020906005020190508060020160009054906101000a900460ff1615611321576040517f08c379a000000000000000000000000000000000000000000000000000000000815260040161131890611b8c565b60405180910390fd5b6004548160040154101561136a576040517f08c379a000000000000000000000000000000000000000000000000000000000815260040161136190611c64565b60405180910390fd5b60008054906101000a900473ffffffffffffffffffffffffffffffffffffffff1673ffffffffffffffffffffffffffffffffffffffff1663a9059cbb8260000160009054906101000a900473ffffffffffffffffffffffffffffffffffffffff1683600101546040518363ffffffff1660e01b81526004016113ed929190611c84565b6020604051808303816000875af115801561140c573d6000803e3d6000fd5b505050506040513d601f19601f820116820180604052508101906114309190611cd9565b61146f576040517f08c379a000000000000000000000000000000000000000000000000000000000815260040161146690611d52565b60405180910390fd5b60018160020160006101000a81548160ff021916908315150217905550813373ffffffffffffffffffffffffffffffffffffffff167f5445f318f4f5fcfb66592e68e0cc5822aa15664039bd5f0ffde24c5a8142b1ac60405160405180910390a35050565b600080fd5b600073ffffffffffffffffffffffffffffffffffffffff82169050919050565b6000611504826114d9565b9050919050565b611514816114f9565b811461151f57600080fd5b50565b6000813590506115318161150b565b92915050565b6000819050919050565b61154a81611537565b811461155557600080fd5b50565b60008135905061156781611541565b92915050565b60008060408385031215611584576115836114d4565b5b600061159285828601611522565b92505060206115a385828601611558565b9150509250929050565b6000602082840312156115c3576115c26114d4565b5b60006115d184828501611522565b91505092915050565b6000602082840312156115f0576115ef6114d4565b5b60006115fe84828501611558565b91505092915050565b6000819050919050565b600061162c611627611622846114d9565b611607565b6114d9565b9050919050565b600061163e82611611565b9050919050565b600061165082611633565b9050919050565b61166081611645565b82525050565b600060208201905061167b6000830184611657565b92915050565b61168a81611537565b82525050565b60006020820190506116a56000830184611681565b92915050565b6116b4816114f9565b82525050565b60008115159050919050565b6116cf816116ba565b82525050565b60006060820190506116ea60008301866116ab565b6116f760208301856116c6565b6117046040830184611681565b949350505050565b600060208201905061172160008301846116c6565b92915050565b600060808201905061173c60008301876116ab565b6117496020830186611681565b61175660408301856116c6565b6117636060830184611681565b95945050505050565b600060208201905061178160008301846116ab565b92915050565b600082825260208201905092915050565b7f4e6f742061207369676e61746f72790000000000000000000000000000000000600082015250565b60006117ce600f83611787565b91506117d982611798565b602082019050919050565b600060208201905081810360008301526117fd816117c1565b9050919050565b7f4e487b7100000000000000000000000000000000000000000000000000000000600052603260045260246000fd5b7f4164647265737320697320616c72656164792061207369676e61746f72790000600082015250565b6000611869601e83611787565b915061187482611833565b602082019050919050565b600060208201905081810360008301526118988161185c565b9050919050565b7f496e76616c6964207369676e61746f7279000000000000000000000000000000600082015250565b60006118d5601183611787565b91506118e08261189f565b602082019050919050565b60006020820190508181036000830152611904816118c8565b9050919050565b7f4e487b7100000000000000000000000000000000000000000000000000000000600052601160045260246000fd5b600061194582611537565b915061195083611537565b92508282019050808211156119685761196761190b565b5b92915050565b7f4e6f7420612076616c6964207369676e61746f727920696e6465780000000000600082015250565b60006119a4601b83611787565b91506119af8261196e565b602082019050919050565b600060208201905081810360008301526119d381611997565b9050919050565b7f5369676e61746f7279206164646974696f6e2068617320616c7265616479206260008201527f65656e20636f6e6669726d656400000000000000000000000000000000000000602082015250565b6000611a36602d83611787565b9150611a41826119da565b604082019050919050565b60006020820190508181036000830152611a6581611a29565b9050919050565b7f4e6577205369676e61746f727920616c726561647920636f6e6669726d65642060008201527f6279207468697320616464726573730000000000000000000000000000000000602082015250565b6000611ac8602f83611787565b9150611ad382611a6c565b604082019050919050565b60006020820190508181036000830152611af781611abb565b9050919050565b600081519050611b0d81611541565b92915050565b600060208284031215611b2957611b286114d4565b5b6000611b3784828501611afe565b91505092915050565b7f5472616e73616374696f6e20616c726561647920657865637574656400000000600082015250565b6000611b76601c83611787565b9150611b8182611b40565b602082019050919050565b60006020820190508181036000830152611ba581611b69565b9050919050565b7f5472616e73616374696f6e20616c726561647920636f6e6669726d6564000000600082015250565b6000611be2601d83611787565b9150611bed82611bac565b602082019050919050565b60006020820190508181036000830152611c1181611bd5565b9050919050565b7f496e73756666696369656e7420636f6e6669726d6174696f6e73000000000000600082015250565b6000611c4e601a83611787565b9150611c5982611c18565b602082019050919050565b60006020820190508181036000830152611c7d81611c41565b9050919050565b6000604082019050611c9960008301856116ab565b611ca66020830184611681565b9392505050565b611cb6816116ba565b8114611cc157600080fd5b50565b600081519050611cd381611cad565b92915050565b600060208284031215611cef57611cee6114d4565b5b6000611cfd84828501611cc4565b91505092915050565b7f5472616e73666572206661696c65640000000000000000000000000000000000600082015250565b6000611d3c600f83611787565b9150611d4782611d06565b602082019050919050565b60006020820190508181036000830152611d6b81611d2f565b905091905056fea26469706673582212208fb02e922554c71526a2aa8b1a98e53fd122499f5220fc2e104888db169a0d2464736f6c63430008170033",
  "linkReferences": {},
  "deployedLinkReferences": {}
}