{
  "_format": "hh-sol-artifact-1",
  "contractName": "ghomultisig",
  "sourceName": "contracts/ghomultisig.sol",
  "abi": [
    {
      "inputs": [
        {
          "internalType": "address[]",
          "name": "_signatories",
          "type": "address[]"
        },
        {
          "internalType": "uint256",
          "name": "_requiredConfirmations",
          "type": "uint256"
        }
      ],
      "stateMutability": "nonpayable",
      "type": "constructor"
    },
    {
      "anonymous": false,
      "inputs": [
        {
          "indexed": true,
          "internalType": "address",
          "name": "added",
          "type": "address"
        }
      ],
      "name": "AddSignatory",
      "type": "event"
    },
    {
      "anonymous": false,
      "inputs": [
        {
          "indexed": true,
          "internalType": "address",
          "name": "owner",
          "type": "address"
        },
        {
          "indexed": true,
          "internalType": "bytes32",
          "name": "sigHash",
          "type": "bytes32"
        }
      ],
      "name": "ConfirmSignatory",
      "type": "event"
    },
    {
      "anonymous": false,
      "inputs": [
        {
          "indexed": true,
          "internalType": "address",
          "name": "owner",
          "type": "address"
        },
        {
          "indexed": true,
          "internalType": "bytes32",
          "name": "walletChangeHash",
          "type": "bytes32"
        }
      ],
      "name": "ConfirmWalletChange",
      "type": "event"
    },
    {
      "anonymous": false,
      "inputs": [
        {
          "indexed": true,
          "internalType": "address",
          "name": "owner",
          "type": "address"
        },
        {
          "indexed": false,
          "internalType": "uint256",
          "name": "requiredConfirmations",
          "type": "uint256"
        }
      ],
      "name": "DecreaseMinimumConfirmations",
      "type": "event"
    },
    {
      "anonymous": false,
      "inputs": [
        {
          "indexed": true,
          "internalType": "address",
          "name": "sender",
          "type": "address"
        },
        {
          "indexed": false,
          "internalType": "uint256",
          "name": "amount",
          "type": "uint256"
        },
        {
          "indexed": false,
          "internalType": "uint256",
          "name": "balance",
          "type": "uint256"
        }
      ],
      "name": "Deposit",
      "type": "event"
    },
    {
      "anonymous": false,
      "inputs": [
        {
          "indexed": true,
          "internalType": "address",
          "name": "owner",
          "type": "address"
        },
        {
          "indexed": true,
          "internalType": "address",
          "name": "recipient",
          "type": "address"
        },
        {
          "indexed": true,
          "internalType": "uint256",
          "name": "amount",
          "type": "uint256"
        }
      ],
      "name": "ExecuteSoleTransaction",
      "type": "event"
    },
    {
      "anonymous": false,
      "inputs": [
        {
          "indexed": true,
          "internalType": "address",
          "name": "owner",
          "type": "address"
        },
        {
          "indexed": true,
          "internalType": "bytes32",
          "name": "transactionHash",
          "type": "bytes32"
        }
      ],
      "name": "ExecuteTransaction",
      "type": "event"
    },
    {
      "anonymous": false,
      "inputs": [
        {
          "indexed": true,
          "internalType": "address",
          "name": "owner",
          "type": "address"
        },
        {
          "indexed": false,
          "internalType": "uint256",
          "name": "requiredConfirmations",
          "type": "uint256"
        }
      ],
      "name": "IncreaseMinimumConfirmations",
      "type": "event"
    },
    {
      "anonymous": false,
      "inputs": [
        {
          "indexed": true,
          "internalType": "address",
          "name": "owner",
          "type": "address"
        },
        {
          "indexed": true,
          "internalType": "address",
          "name": "added",
          "type": "address"
        },
        {
          "indexed": true,
          "internalType": "bytes32",
          "name": "sigHash",
          "type": "bytes32"
        }
      ],
      "name": "NewSignatoryInQueue",
      "type": "event"
    },
    {
      "anonymous": false,
      "inputs": [
        {
          "indexed": true,
          "internalType": "address",
          "name": "owner",
          "type": "address"
        },
        {
          "indexed": true,
          "internalType": "bytes32",
          "name": "transactionHash",
          "type": "bytes32"
        }
      ],
      "name": "RejectedTransaction",
      "type": "event"
    },
    {
      "anonymous": false,
      "inputs": [
        {
          "indexed": true,
          "internalType": "address",
          "name": "owner",
          "type": "address"
        },
        {
          "indexed": true,
          "internalType": "bytes32",
          "name": "sigHash",
          "type": "bytes32"
        }
      ],
      "name": "RemovedProposedSignatory",
      "type": "event"
    },
    {
      "anonymous": false,
      "inputs": [
        {
          "indexed": true,
          "internalType": "address",
          "name": "owner",
          "type": "address"
        },
        {
          "indexed": true,
          "internalType": "bytes32",
          "name": "walletChangeHash",
          "type": "bytes32"
        }
      ],
      "name": "RemovedProposedWalletChange",
      "type": "event"
    },
    {
      "anonymous": false,
      "inputs": [
        {
          "indexed": true,
          "internalType": "address",
          "name": "owner",
          "type": "address"
        },
        {
          "indexed": true,
          "internalType": "bytes32",
          "name": "transactionHash",
          "type": "bytes32"
        }
      ],
      "name": "RemovedRejectionFromTransaction",
      "type": "event"
    },
    {
      "anonymous": false,
      "inputs": [
        {
          "indexed": true,
          "internalType": "address",
          "name": "removed",
          "type": "address"
        }
      ],
      "name": "RemovedSignatory",
      "type": "event"
    },
    {
      "anonymous": false,
      "inputs": [
        {
          "indexed": true,
          "internalType": "address",
          "name": "owner",
          "type": "address"
        },
        {
          "indexed": true,
          "internalType": "bytes32",
          "name": "sigHash",
          "type": "bytes32"
        }
      ],
      "name": "RemovedSignatureFromSignatory",
      "type": "event"
    },
    {
      "anonymous": false,
      "inputs": [
        {
          "indexed": true,
          "internalType": "address",
          "name": "owner",
          "type": "address"
        },
        {
          "indexed": true,
          "internalType": "bytes32",
          "name": "transactionHash",
          "type": "bytes32"
        }
      ],
      "name": "RemovedSignatureFromTransaction",
      "type": "event"
    },
    {
      "anonymous": false,
      "inputs": [
        {
          "indexed": true,
          "internalType": "address",
          "name": "owner",
          "type": "address"
        },
        {
          "indexed": true,
          "internalType": "bytes32",
          "name": "walletChangeHash",
          "type": "bytes32"
        }
      ],
      "name": "RemovedSignatureFromWalletChange",
      "type": "event"
    },
    {
      "anonymous": false,
      "inputs": [
        {
          "indexed": true,
          "internalType": "address",
          "name": "owner",
          "type": "address"
        },
        {
          "indexed": true,
          "internalType": "bytes32",
          "name": "transactionHash",
          "type": "bytes32"
        }
      ],
      "name": "RemovedTransaction",
      "type": "event"
    },
    {
      "anonymous": false,
      "inputs": [
        {
          "indexed": true,
          "internalType": "address",
          "name": "owner",
          "type": "address"
        },
        {
          "indexed": true,
          "internalType": "bytes32",
          "name": "transactionHash",
          "type": "bytes32"
        }
      ],
      "name": "SignedTransaction",
      "type": "event"
    },
    {
      "anonymous": false,
      "inputs": [
        {
          "indexed": true,
          "internalType": "address",
          "name": "owner",
          "type": "address"
        },
        {
          "indexed": true,
          "internalType": "bytes32",
          "name": "transactionHash",
          "type": "bytes32"
        },
        {
          "indexed": true,
          "internalType": "address",
          "name": "to",
          "type": "address"
        },
        {
          "indexed": false,
          "internalType": "uint256",
          "name": "amount",
          "type": "uint256"
        }
      ],
      "name": "SubmitTransaction",
      "type": "event"
    },
    {
      "anonymous": false,
      "inputs": [
        {
          "indexed": true,
          "internalType": "address",
          "name": "owner",
          "type": "address"
        },
        {
          "indexed": true,
          "internalType": "bytes32",
          "name": "walletChangeHash",
          "type": "bytes32"
        },
        {
          "indexed": true,
          "internalType": "uint256",
          "name": "newRequiredConfirmations",
          "type": "uint256"
        }
      ],
      "name": "SubmitWalletChange",
      "type": "event"
    },
    {
      "inputs": [
        {
          "internalType": "address",
          "name": "_addedSignatory",
          "type": "address"
        }
      ],
      "name": "addSignatory",
      "outputs": [],
      "stateMutability": "nonpayable",
      "type": "function"
    },
    {
      "inputs": [],
      "name": "balanceETH",
      "outputs": [
        {
          "internalType": "uint256",
          "name": "_balance",
          "type": "uint256"
        }
      ],
      "stateMutability": "view",
      "type": "function"
    },
    {
      "inputs": [],
      "name": "balanceGHO",
      "outputs": [
        {
          "internalType": "uint256",
          "name": "_balance",
          "type": "uint256"
        }
      ],
      "stateMutability": "view",
      "type": "function"
    },
    {
      "inputs": [
        {
          "internalType": "uint256",
          "name": "_newRequiredConfirmations",
          "type": "uint256"
        }
      ],
      "name": "changeRequiredConfirmations",
      "outputs": [],
      "stateMutability": "nonpayable",
      "type": "function"
    },
    {
      "inputs": [],
      "name": "depositETH",
      "outputs": [],
      "stateMutability": "payable",
      "type": "function"
    },
    {
      "inputs": [
        {
          "internalType": "uint256",
          "name": "_amount",
          "type": "uint256"
        }
      ],
      "name": "depositGHO",
      "outputs": [],
      "stateMutability": "nonpayable",
      "type": "function"
    },
    {
      "inputs": [
        {
          "internalType": "uint256",
          "name": "_signatoryIndex",
          "type": "uint256"
        }
      ],
      "name": "getSignatoryHash",
      "outputs": [
        {
          "internalType": "bytes32",
          "name": "",
          "type": "bytes32"
        }
      ],
      "stateMutability": "view",
      "type": "function"
    },
    {
      "inputs": [
        {
          "internalType": "uint256",
          "name": "_transactionIndex",
          "type": "uint256"
        }
      ],
      "name": "getTransactionHash",
      "outputs": [
        {
          "internalType": "bytes32",
          "name": "",
          "type": "bytes32"
        }
      ],
      "stateMutability": "view",
      "type": "function"
    },
    {
      "inputs": [
        {
          "internalType": "uint256",
          "name": "_walletChangeIndex",
          "type": "uint256"
        }
      ],
      "name": "getWalletChangeHash",
      "outputs": [
        {
          "internalType": "bytes32",
          "name": "",
          "type": "bytes32"
        }
      ],
      "stateMutability": "view",
      "type": "function"
    },
    {
      "inputs": [
        {
          "internalType": "bytes32",
          "name": "_sigHash",
          "type": "bytes32"
        }
      ],
      "name": "rejectSignatory",
      "outputs": [],
      "stateMutability": "nonpayable",
      "type": "function"
    },
    {
      "inputs": [
        {
          "internalType": "bytes32",
          "name": "_txHash",
          "type": "bytes32"
        }
      ],
      "name": "rejectTransaction",
      "outputs": [],
      "stateMutability": "nonpayable",
      "type": "function"
    },
    {
      "inputs": [
        {
          "internalType": "bytes32",
          "name": "_walletChangeHash",
          "type": "bytes32"
        }
      ],
      "name": "rejectWalletChange",
      "outputs": [],
      "stateMutability": "nonpayable",
      "type": "function"
    },
    {
      "inputs": [],
      "name": "removeSignatory",
      "outputs": [],
      "stateMutability": "nonpayable",
      "type": "function"
    },
    {
      "inputs": [],
      "name": "requiredConfirmations",
      "outputs": [
        {
          "internalType": "uint256",
          "name": "",
          "type": "uint256"
        }
      ],
      "stateMutability": "view",
      "type": "function"
    },
    {
      "inputs": [],
      "name": "requiredRejections",
      "outputs": [
        {
          "internalType": "uint256",
          "name": "",
          "type": "uint256"
        }
      ],
      "stateMutability": "view",
      "type": "function"
    },
    {
      "inputs": [
        {
          "internalType": "bytes32",
          "name": "_txHash",
          "type": "bytes32"
        }
      ],
      "name": "revokeTransactionRejection",
      "outputs": [],
      "stateMutability": "nonpayable",
      "type": "function"
    },
    {
      "inputs": [
        {
          "internalType": "bytes32",
          "name": "_txHash",
          "type": "bytes32"
        }
      ],
      "name": "revokeTransactionSignature",
      "outputs": [],
      "stateMutability": "nonpayable",
      "type": "function"
    },
    {
      "inputs": [
        {
          "internalType": "uint256",
          "name": "",
          "type": "uint256"
        }
      ],
      "name": "signatories",
      "outputs": [
        {
          "internalType": "address",
          "name": "",
          "type": "address"
        }
      ],
      "stateMutability": "view",
      "type": "function"
    },
    {
      "inputs": [
        {
          "internalType": "address",
          "name": "_recipient",
          "type": "address"
        },
        {
          "internalType": "uint256",
          "name": "_amount",
          "type": "uint256"
        }
      ],
      "name": "submitTransaction",
      "outputs": [],
      "stateMutability": "nonpayable",
      "type": "function"
    },
    {
      "inputs": [
        {
          "internalType": "bytes32",
          "name": "_sigHash",
          "type": "bytes32"
        },
        {
          "internalType": "bytes",
          "name": "_sig",
          "type": "bytes"
        }
      ],
      "name": "verifySignatory",
      "outputs": [
        {
          "internalType": "bool",
          "name": "check",
          "type": "bool"
        }
      ],
      "stateMutability": "nonpayable",
      "type": "function"
    },
    {
      "inputs": [
        {
          "internalType": "bytes32",
          "name": "_txHash",
          "type": "bytes32"
        },
        {
          "internalType": "bytes",
          "name": "_sig",
          "type": "bytes"
        }
      ],
      "name": "verifyTransaction",
      "outputs": [
        {
          "internalType": "bool",
          "name": "check",
          "type": "bool"
        }
      ],
      "stateMutability": "nonpayable",
      "type": "function"
    },
    {
      "inputs": [
        {
          "internalType": "bytes32",
          "name": "_walletChangeHash",
          "type": "bytes32"
        },
        {
          "internalType": "bytes",
          "name": "_sig",
          "type": "bytes"
        }
      ],
      "name": "verifyWalletChange",
      "outputs": [
        {
          "internalType": "bool",
          "name": "check",
          "type": "bool"
        }
      ],
      "stateMutability": "nonpayable",
      "type": "function"
    },
    {
      "inputs": [],
      "name": "viewStagedSignatories",
      "outputs": [
        {
          "components": [
            {
              "internalType": "address",
              "name": "sigAddress",
              "type": "address"
            },
            {
              "internalType": "uint256",
              "name": "nonce",
              "type": "uint256"
            },
            {
              "internalType": "bytes32",
              "name": "sigHash",
              "type": "bytes32"
            },
            {
              "internalType": "uint256",
              "name": "confirmationsCount",
              "type": "uint256"
            }
          ],
          "internalType": "struct ghomultisig.NewSignatory[]",
          "name": "",
          "type": "tuple[]"
        }
      ],
      "stateMutability": "view",
      "type": "function"
    },
    {
      "inputs": [],
      "name": "viewStagedTransactions",
      "outputs": [
        {
          "components": [
            {
              "internalType": "address",
              "name": "to",
              "type": "address"
            },
            {
              "internalType": "uint256",
              "name": "nonce",
              "type": "uint256"
            },
            {
              "internalType": "bytes32",
              "name": "txHash",
              "type": "bytes32"
            },
            {
              "internalType": "uint256",
              "name": "amount",
              "type": "uint256"
            },
            {
              "internalType": "uint256",
              "name": "confirmationsCount",
              "type": "uint256"
            },
            {
              "internalType": "uint256",
              "name": "rejectCount",
              "type": "uint256"
            }
          ],
          "internalType": "struct ghomultisig.Transaction[]",
          "name": "",
          "type": "tuple[]"
        }
      ],
      "stateMutability": "view",
      "type": "function"
    }
  ],
  "bytecode": "0x608060405260006005553480156200001657600080fd5b506040516200653b3803806200653b83398181016040528101906200003c919062000574565b73c4bf5cbdabe595361438f8c6a187bdc330539c606000806101000a81548173ffffffffffffffffffffffffffffffffffffffff021916908373ffffffffffffffffffffffffffffffffffffffff1602179055508082511015620000d7576040517f08c379a0000000000000000000000000000000000000000000000000000000008152600401620000ce906200063b565b60405180910390fd5b600081116200011d576040517f08c379a00000000000000000000000000000000000000000000000000000000081526004016200011490620006d3565b60405180910390fd5b60005b825181101562000318576000838281518110620001425762000141620006f5565b5b60200260200101519050600073ffffffffffffffffffffffffffffffffffffffff168173ffffffffffffffffffffffffffffffffffffffff1603620001be576040517f08c379a0000000000000000000000000000000000000000000000000000000008152600401620001b59062000774565b60405180910390fd5b600260008273ffffffffffffffffffffffffffffffffffffffff1673ffffffffffffffffffffffffffffffffffffffff16815260200190815260200160002060009054906101000a900460ff16156200024e576040517f08c379a00000000000000000000000000000000000000000000000000000000081526004016200024590620007e6565b60405180910390fd5b6001600260008373ffffffffffffffffffffffffffffffffffffffff1673ffffffffffffffffffffffffffffffffffffffff16815260200190815260200160002060006101000a81548160ff0219169083151502179055506001819080600181540180825580915050600190039060005260206000200160009091909190916101000a81548173ffffffffffffffffffffffffffffffffffffffff021916908373ffffffffffffffffffffffffffffffffffffffff16021790555050808060010191505062000120565b50806003819055508082516200032f919062000837565b60016200033d919062000872565b6004819055505050620008ad565b6000604051905090565b600080fd5b600080fd5b600080fd5b6000601f19601f8301169050919050565b7f4e487b7100000000000000000000000000000000000000000000000000000000600052604160045260246000fd5b620003af8262000364565b810181811067ffffffffffffffff82111715620003d157620003d062000375565b5b80604052505050565b6000620003e66200034b565b9050620003f48282620003a4565b919050565b600067ffffffffffffffff82111562000417576200041662000375565b5b602082029050602081019050919050565b600080fd5b600073ffffffffffffffffffffffffffffffffffffffff82169050919050565b60006200045a826200042d565b9050919050565b6200046c816200044d565b81146200047857600080fd5b50565b6000815190506200048c8162000461565b92915050565b6000620004a9620004a384620003f9565b620003da565b90508083825260208201905060208402830185811115620004cf57620004ce62000428565b5b835b81811015620004fc5780620004e788826200047b565b845260208401935050602081019050620004d1565b5050509392505050565b600082601f8301126200051e576200051d6200035f565b5b81516200053084826020860162000492565b91505092915050565b6000819050919050565b6200054e8162000539565b81146200055a57600080fd5b50565b6000815190506200056e8162000543565b92915050565b600080604083850312156200058e576200058d62000355565b5b600083015167ffffffffffffffff811115620005af57620005ae6200035a565b5b620005bd8582860162000506565b9250506020620005d0858286016200055d565b9150509250929050565b600082825260208201905092915050565b7f4e6f7420656e6f756768207369676e61746f7269657300000000000000000000600082015250565b600062000623601683620005da565b91506200063082620005eb565b602082019050919050565b60006020820190508181036000830152620006568162000614565b9050919050565b7f4d7573742068617665206174206c65617374203120726571756972656420636f60008201527f6e6669726d6174696f6e00000000000000000000000000000000000000000000602082015250565b6000620006bb602a83620005da565b9150620006c8826200065d565b604082019050919050565b60006020820190508181036000830152620006ee81620006ac565b9050919050565b7f4e487b7100000000000000000000000000000000000000000000000000000000600052603260045260246000fd5b7f496e76616c6964207369676e61746f7279000000000000000000000000000000600082015250565b60006200075c601183620005da565b9150620007698262000724565b602082019050919050565b600060208201905081810360008301526200078f816200074d565b9050919050565b7f5369676e61746f7279206e6f7420756e69717565000000000000000000000000600082015250565b6000620007ce601483620005da565b9150620007db8262000796565b602082019050919050565b600060208201905081810360008301526200080181620007bf565b9050919050565b7f4e487b7100000000000000000000000000000000000000000000000000000000600052601160045260246000fd5b6000620008448262000539565b9150620008518362000539565b92508282039050818111156200086c576200086b62000808565b5b92915050565b60006200087f8262000539565b91506200088c8362000539565b9250828201905080821115620008a757620008a662000808565b5b92915050565b615c7e80620008bd6000396000f3fe60806040526004361061014b5760003560e01c806390903f74116100b6578063cdb9df6b1161006f578063cdb9df6b1461049e578063daa5dc3a146104db578063e05a7edf14610506578063ecbdbb3214610531578063f6326fb31461055c578063f7d74f60146105665761014b565b806390903f741461036a57806394aca2f0146103a7578063a51e0637146103d0578063bebabc58146103fb578063c4acec4714610424578063ccc00fac146104615761014b565b80633217288911610108578063321728891461025c5780635ff17552146102855780637698a75c146102c25780637709b6ab146102eb5780637c367a5b1461031457806382e717f71461033f5761014b565b806310aa1e341461015057806310b695c51461016757806311134384146101905780631c884592146101cd5780631d43b6531461020a57806321dd877f14610233575b600080fd5b34801561015c57600080fd5b5061016561058f565b005b34801561017357600080fd5b5061018e60048036038101906101899190614811565b610ca4565b005b34801561019c57600080fd5b506101b760048036038101906101b29190614874565b6112b0565b6040516101c491906148b0565b60405180910390f35b3480156101d957600080fd5b506101f460048036038101906101ef9190614874565b6113b8565b60405161020191906148b0565b60405180910390f35b34801561021657600080fd5b50610231600480360381019061022c9190614929565b611434565b005b34801561023f57600080fd5b5061025a60048036038101906102559190614969565b611905565b005b34801561026857600080fd5b50610283600480360381019061027e9190614811565b611de7565b005b34801561029157600080fd5b506102ac60048036038101906102a79190614adc565b612070565b6040516102b99190614b53565b60405180910390f35b3480156102ce57600080fd5b506102e960048036038101906102e49190614874565b61260d565b005b3480156102f757600080fd5b50610312600480360381019061030d9190614874565b612898565b005b34801561032057600080fd5b50610329612a63565b6040516103369190614b7d565b60405180910390f35b34801561034b57600080fd5b50610354612b05565b6040516103619190614b7d565b60405180910390f35b34801561037657600080fd5b50610391600480360381019061038c9190614adc565b612b0b565b60405161039e9190614b53565b60405180910390f35b3480156103b357600080fd5b506103ce60048036038101906103c99190614811565b612eda565b005b3480156103dc57600080fd5b506103e5613339565b6040516103f29190614b7d565b60405180910390f35b34801561040757600080fd5b50610422600480360381019061041d9190614811565b61333f565b005b34801561043057600080fd5b5061044b60048036038101906104469190614874565b6135c8565b60405161045891906148b0565b60405180910390f35b34801561046d57600080fd5b5061048860048036038101906104839190614adc565b613644565b6040516104959190614b53565b60405180910390f35b3480156104aa57600080fd5b506104c560048036038101906104c09190614874565b613ad2565b6040516104d29190614ba7565b60405180910390f35b3480156104e757600080fd5b506104f0613b11565b6040516104fd9190614cf3565b60405180910390f35b34801561051257600080fd5b5061051b613c70565b6040516105289190614e3f565b60405180910390f35b34801561053d57600080fd5b50610546613de3565b6040516105539190614b7d565b60405180910390f35b610564613deb565b005b34801561057257600080fd5b5061058d60048036038101906105889190614811565b613ed6565b005b600260003373ffffffffffffffffffffffffffffffffffffffff1673ffffffffffffffffffffffffffffffffffffffff16815260200190815260200160002060009054906101000a900460ff1661061b576040517f08c379a000000000000000000000000000000000000000000000000000000000815260040161061290614ebe565b60405180910390fd5b6001808054905011610662576040517f08c379a000000000000000000000000000000000000000000000000000000000815260040161065990614f2a565b60405180910390fd5b6000600260003373ffffffffffffffffffffffffffffffffffffffff1673ffffffffffffffffffffffffffffffffffffffff16815260200190815260200160002060006101000a81548160ff02191690831515021790555060005b60018054905081101561083e573373ffffffffffffffffffffffffffffffffffffffff16600182815481106106f5576106f4614f4a565b5b9060005260206000200160009054906101000a900473ffffffffffffffffffffffffffffffffffffffff1673ffffffffffffffffffffffffffffffffffffffff160361083157600180808054905061074d9190614fa8565b8154811061075e5761075d614f4a565b5b9060005260206000200160009054906101000a900473ffffffffffffffffffffffffffffffffffffffff166001828154811061079d5761079c614f4a565b5b9060005260206000200160006101000a81548173ffffffffffffffffffffffffffffffffffffffff021916908373ffffffffffffffffffffffffffffffffffffffff16021790555060018054806107f7576107f6614fdc565b5b6001900381819060005260206000200160006101000a81549073ffffffffffffffffffffffffffffffffffffffff0219169055905561083e565b80806001019150506106bd565b506001600360008282546108529190614fa8565b925050819055503373ffffffffffffffffffffffffffffffffffffffff167f553a088f09aece60cea31533978e7260c31a7af06cfa227e8923d693164a34306003546040516108a19190614b7d565b60405180910390a23373ffffffffffffffffffffffffffffffffffffffff167f7888dd771886421c525994f3a19ceddff8f41645edeca4237e909cc81f06bd2760405160405180910390a260005b600680549050811015610ac657600760006006838154811061091457610913614f4a565b5b906000526020600020906006020160020154815260200190815260200160002060003373ffffffffffffffffffffffffffffffffffffffff1673ffffffffffffffffffffffffffffffffffffffff16815260200190815260200160002060009054906101000a900460ff1615610ab95760016006828154811061099a57610999614f4a565b5b906000526020600020906006020160040160008282546109ba9190614fa8565b92505081905550600060076000600684815481106109db576109da614f4a565b5b906000526020600020906006020160020154815260200190815260200160002060003373ffffffffffffffffffffffffffffffffffffffff1673ffffffffffffffffffffffffffffffffffffffff16815260200190815260200160002060006101000a81548160ff02191690831515021790555060068181548110610a6357610a62614f4a565b5b9060005260206000209060060201600201543373ffffffffffffffffffffffffffffffffffffffff167f8071054ba9a22b3a05694ef53d8651ad1a56c23b5a8382cbde9fbde10534e0ab60405160405180910390a35b80806001019150506108ef565b5060005b600a80549050811015610ca157600b6000600a8381548110610aef57610aee614f4a565b5b906000526020600020906004020160020154815260200190815260200160002060003373ffffffffffffffffffffffffffffffffffffffff1673ffffffffffffffffffffffffffffffffffffffff16815260200190815260200160002060009054906101000a900460ff1615610c94576001600a8281548110610b7557610b74614f4a565b5b90600052602060002090600402016003016000828254610b959190614fa8565b925050819055506000600b6000600a8481548110610bb657610bb5614f4a565b5b906000526020600020906004020160020154815260200190815260200160002060003373ffffffffffffffffffffffffffffffffffffffff1673ffffffffffffffffffffffffffffffffffffffff16815260200190815260200160002060006101000a81548160ff021916908315150217905550600a8181548110610c3e57610c3d614f4a565b5b9060005260206000209060040201600201543373ffffffffffffffffffffffffffffffffffffffff167f6e61401c4baae93c3168c309ee8c585996159509891d4b42cc75271155f8880360405160405180910390a35b8080600101915050610aca565b50565b600260003373ffffffffffffffffffffffffffffffffffffffff1673ffffffffffffffffffffffffffffffffffffffff16815260200190815260200160002060009054906101000a900460ff16610d30576040517f08c379a0000000000000000000000000000000000000000000000000000000008152600401610d2790614ebe565b60405180910390fd5b60003390506000801b8203610d7a576040517f08c379a0000000000000000000000000000000000000000000000000000000008152600401610d7190615057565b60405180910390fd5b600073ffffffffffffffffffffffffffffffffffffffff168173ffffffffffffffffffffffffffffffffffffffff1603610de9576040517f08c379a0000000000000000000000000000000000000000000000000000000008152600401610de0906150c3565b60405180910390fd5b6008600083815260200190815260200160002060008273ffffffffffffffffffffffffffffffffffffffff1673ffffffffffffffffffffffffffffffffffffffff16815260200190815260200160002060009054906101000a900460ff1615610e87576040517f08c379a0000000000000000000000000000000000000000000000000000000008152600401610e7e90615155565b60405180910390fd5b6006600960008481526020019081526020016000205481548110610eae57610ead614f4a565b5b9060005260206000209060060201600201548214610f01576040517f08c379a0000000000000000000000000000000000000000000000000000000008152600401610ef890615057565b60405180910390fd5b60006007600084815260200190815260200160002060008373ffffffffffffffffffffffffffffffffffffffff1673ffffffffffffffffffffffffffffffffffffffff16815260200190815260200160002060006101000a81548160ff02191690831515021790555060006006600960008581526020019081526020016000205481548110610f9357610f92614f4a565b5b9060005260206000209060060201905060016008600085815260200190815260200160002060008473ffffffffffffffffffffffffffffffffffffffff1673ffffffffffffffffffffffffffffffffffffffff16815260200190815260200160002060006101000a81548160ff02191690831515021790555060018160050160008282546110219190615175565b92505081905550828273ffffffffffffffffffffffffffffffffffffffff167f67bbec63d4532322f984dce87d0bbdf6d8a1f13c4e20cb7b052185fdb4160bfa60405160405180910390a36004548160050154036112ab57600160068054905061108b9190614fa8565b6009600085815260200190815260200160002054146111ec57600060096000858152602001908152602001600020549050600660016006805490506110d09190614fa8565b815481106110e1576110e0614f4a565b5b90600052602060002090600602016006828154811061110357611102614f4a565b5b90600052602060002090600602016000820160009054906101000a900473ffffffffffffffffffffffffffffffffffffffff168160000160006101000a81548173ffffffffffffffffffffffffffffffffffffffff021916908373ffffffffffffffffffffffffffffffffffffffff16021790555060018201548160010155600282015481600201556003820154816003015560048201548160040155600582015481600501559050508060096000600684815481106111c6576111c5614f4a565b5b906000526020600020906006020160020154815260200190815260200160002081905550505b60068054806111fe576111fd614fdc565b5b6001900381819060005260206000209060060201600080820160006101000a81549073ffffffffffffffffffffffffffffffffffffffff02191690556001820160009055600282016000905560038201600090556004820160009055600582016000905550509055828273ffffffffffffffffffffffffffffffffffffffff167fa6ebf2879dc40ff6afb58ad770f1e757d97beebe30438254596aefd7d73ab9f360405160405180910390a35b505050565b6000600260003373ffffffffffffffffffffffffffffffffffffffff1673ffffffffffffffffffffffffffffffffffffffff16815260200190815260200160002060009054906101000a900460ff1661133e576040517f08c379a000000000000000000000000000000000000000000000000000000000815260040161133590614ebe565b60405180910390fd5b6006805490508210611385576040517f08c379a000000000000000000000000000000000000000000000000000000000815260040161137c906151f5565b60405180910390fd5b60006006838154811061139b5761139a614f4a565b5b906000526020600020906006020190508060020154915050919050565b6000600d805490508210611401576040517f08c379a00000000000000000000000000000000000000000000000000000000081526004016113f890615287565b60405180910390fd5b6000600d838154811061141757611416614f4a565b5b906000526020600020906004020190508060020154915050919050565b600260003373ffffffffffffffffffffffffffffffffffffffff1673ffffffffffffffffffffffffffffffffffffffff16815260200190815260200160002060009054906101000a900460ff166114c0576040517f08c379a00000000000000000000000000000000000000000000000000000000081526004016114b790614ebe565b60405180910390fd5b600073ffffffffffffffffffffffffffffffffffffffff168273ffffffffffffffffffffffffffffffffffffffff160361152f576040517f08c379a0000000000000000000000000000000000000000000000000000000008152600401611526906150c3565b60405180910390fd5b60008111611572576040517f08c379a0000000000000000000000000000000000000000000000000000000008152600401611569906152f3565b60405180910390fd5b6001600354036117035780611585612a63565b10156115c6576040517f08c379a00000000000000000000000000000000000000000000000000000000081526004016115bd90615385565b60405180910390fd5b60008054906101000a900473ffffffffffffffffffffffffffffffffffffffff1673ffffffffffffffffffffffffffffffffffffffff1663a9059cbb83836040518363ffffffff1660e01b81526004016116219291906153a5565b6020604051808303816000875af1158015611640573d6000803e3d6000fd5b505050506040513d601f19601f8201168201806040525081019061166491906153fa565b6116a3576040517f08c379a000000000000000000000000000000000000000000000000000000000815260040161169a90615473565b60405180910390fd5b808273ffffffffffffffffffffffffffffffffffffffff163373ffffffffffffffffffffffffffffffffffffffff167f0aa4214283a9b5b4763e3f59f3cee8983f599dadd057a8eb62a21873b960ea1d60405160405180910390a4611901565b6000600680549050905060066001816001815401808255809150500390600052602060002090505060006006828154811061174157611740614f4a565b5b90600052602060002090600602019050838160000160006101000a81548173ffffffffffffffffffffffffffffffffffffffff021916908373ffffffffffffffffffffffffffffffffffffffff16021790555082816003018190555060055481600101819055506001600560008282546117bb9190615175565b92505081905550600181600401819055506000816005018190555083836005546040516020016117ed939291906154fc565b6040516020818303038152906040528051906020012081600201819055506001600760008360020154815260200190815260200160002060003373ffffffffffffffffffffffffffffffffffffffff1673ffffffffffffffffffffffffffffffffffffffff16815260200190815260200160002060006101000a81548160ff021916908315150217905550816009600083600201548152602001908152602001600020819055508373ffffffffffffffffffffffffffffffffffffffff1681600201543373ffffffffffffffffffffffffffffffffffffffff167fa5f8a1a8d7d9b18d0f58344cab3551b063a1d6c266bc49386ee4d6a7c4ce5e40866040516118f69190614b7d565b60405180910390a450505b5050565b600260003373ffffffffffffffffffffffffffffffffffffffff1673ffffffffffffffffffffffffffffffffffffffff16815260200190815260200160002060009054906101000a900460ff16611991576040517f08c379a000000000000000000000000000000000000000000000000000000000815260040161198890614ebe565b60405180910390fd5b600260008273ffffffffffffffffffffffffffffffffffffffff1673ffffffffffffffffffffffffffffffffffffffff16815260200190815260200160002060009054906101000a900460ff1615611a1e576040517f08c379a0000000000000000000000000000000000000000000000000000000008152600401611a1590615585565b60405180910390fd5b600073ffffffffffffffffffffffffffffffffffffffff168173ffffffffffffffffffffffffffffffffffffffff1603611a8d576040517f08c379a0000000000000000000000000000000000000000000000000000000008152600401611a84906155f1565b60405180910390fd5b6001808054905003611c06576001600260008373ffffffffffffffffffffffffffffffffffffffff1673ffffffffffffffffffffffffffffffffffffffff16815260200190815260200160002060006101000a81548160ff0219169083151502179055506001819080600181540180825580915050600190039060005260206000200160009091909190916101000a81548173ffffffffffffffffffffffffffffffffffffffff021916908373ffffffffffffffffffffffffffffffffffffffff160217905550600160036000828254611b679190615175565b925050819055508073ffffffffffffffffffffffffffffffffffffffff167fafa2fee17ecbc1c3858c3cfc3c928683189c429a4a7d3d1734abeaca03986aa160405160405180910390a23373ffffffffffffffffffffffffffffffffffffffff167f2ccb3a457aa93d20522516925bd748e3af1575d72225ff1439460468d1b5be3a600354604051611bf99190614b7d565b60405180910390a2611de4565b6000600a805490509050600a600181600181540180825580915050039060005260206000209050506000600a8281548110611c4457611c43614f4a565b5b90600052602060002090600402019050828160000160006101000a81548173ffffffffffffffffffffffffffffffffffffffff021916908373ffffffffffffffffffffffffffffffffffffffff1602179055506005548160010181905550600160056000828254611cb59190615175565b9250508190555082600554604051602001611cd1929190615611565b6040516020818303038152906040528051906020012081600201819055506001600b60008360020154815260200190815260200160002060003373ffffffffffffffffffffffffffffffffffffffff1673ffffffffffffffffffffffffffffffffffffffff16815260200190815260200160002060006101000a81548160ff02191690831515021790555081600c600083600201548152602001908152602001600020819055506001816003018190555080600201548373ffffffffffffffffffffffffffffffffffffffff163373ffffffffffffffffffffffffffffffffffffffff167fa41b9eda389321bb702463ea43158672b0ad35ee73fa3389d2b901e6a3769b1660405160405180910390a450505b50565b600260003373ffffffffffffffffffffffffffffffffffffffff1673ffffffffffffffffffffffffffffffffffffffff16815260200190815260200160002060009054906101000a900460ff16611e73576040517f08c379a0000000000000000000000000000000000000000000000000000000008152600401611e6a90614ebe565b60405180910390fd5b600680549050600960008381526020019081526020016000205410611ecd576040517f08c379a0000000000000000000000000000000000000000000000000000000008152600401611ec4906151f5565b60405180910390fd5b60006006600960008481526020019081526020016000205481548110611ef657611ef5614f4a565b5b906000526020600020906006020190506008600083815260200190815260200160002060003373ffffffffffffffffffffffffffffffffffffffff1673ffffffffffffffffffffffffffffffffffffffff16815260200190815260200160002060009054906101000a900460ff16611fa3576040517f08c379a0000000000000000000000000000000000000000000000000000000008152600401611f9a906156af565b60405180910390fd5b6001816005016000828254611fb89190614fa8565b9250508190555060006008600084815260200190815260200160002060003373ffffffffffffffffffffffffffffffffffffffff1673ffffffffffffffffffffffffffffffffffffffff16815260200190815260200160002060006101000a81548160ff021916908315150217905550813373ffffffffffffffffffffffffffffffffffffffff167f4ceac19538a371ce1cdb792d72bc01aa59ef1e884df58f4c2a7a7ea60b8723cd60405160405180910390a35050565b6000600260003373ffffffffffffffffffffffffffffffffffffffff1673ffffffffffffffffffffffffffffffffffffffff16815260200190815260200160002060009054906101000a900460ff166120fe576040517f08c379a00000000000000000000000000000000000000000000000000000000081526004016120f590614ebe565b60405180910390fd5b60003390506000801b8403612148576040517f08c379a000000000000000000000000000000000000000000000000000000000815260040161213f9061571b565b60405180910390fd5b600073ffffffffffffffffffffffffffffffffffffffff168173ffffffffffffffffffffffffffffffffffffffff16036121b7576040517f08c379a00000000000000000000000000000000000000000000000000000000081526004016121ae906150c3565b60405180910390fd5b600b600085815260200190815260200160002060008273ffffffffffffffffffffffffffffffffffffffff1673ffffffffffffffffffffffffffffffffffffffff16815260200190815260200160002060009054906101000a900460ff1615612255576040517f08c379a000000000000000000000000000000000000000000000000000000000815260040161224c90615787565b60405180910390fd5b600a600c6000868152602001908152602001600020548154811061227c5761227b614f4a565b5b90600052602060002090600402016002015484146122cf576040517f08c379a00000000000000000000000000000000000000000000000000000000081526004016122c69061571b565b60405180910390fd5b60006122da856142b9565b90508173ffffffffffffffffffffffffffffffffffffffff166122fd82866142e9565b73ffffffffffffffffffffffffffffffffffffffff161492508215612605576000600a600c6000888152602001908152602001600020548154811061234557612344614f4a565b5b906000526020600020906004020190506001600b600088815260200190815260200160002060008573ffffffffffffffffffffffffffffffffffffffff1673ffffffffffffffffffffffffffffffffffffffff16815260200190815260200160002060006101000a81548160ff02191690831515021790555060018160030160008282546123d39190615175565b92505081905550858373ffffffffffffffffffffffffffffffffffffffff167f7f157501c2b3a2c5654e45c4ba038b952c1ace6d267c5c852798a86bd50378ba60405160405180910390a3600180549050816003015403612603576001600260008360000160009054906101000a900473ffffffffffffffffffffffffffffffffffffffff1673ffffffffffffffffffffffffffffffffffffffff1673ffffffffffffffffffffffffffffffffffffffff16815260200190815260200160002060006101000a81548160ff02191690831515021790555060018160000160009054906101000a900473ffffffffffffffffffffffffffffffffffffffff169080600181540180825580915050600190039060005260206000200160009091909190916101000a81548173ffffffffffffffffffffffffffffffffffffffff021916908373ffffffffffffffffffffffffffffffffffffffff1602179055506001600360008282546125449190615175565b925050819055508273ffffffffffffffffffffffffffffffffffffffff167f2ccb3a457aa93d20522516925bd748e3af1575d72225ff1439460468d1b5be3a6003546040516125939190614b7d565b60405180910390a28060000160009054906101000a900473ffffffffffffffffffffffffffffffffffffffff1673ffffffffffffffffffffffffffffffffffffffff167fafa2fee17ecbc1c3858c3cfc3c928683189c429a4a7d3d1734abeaca03986aa160405160405180910390a25b505b505092915050565b600260003373ffffffffffffffffffffffffffffffffffffffff1673ffffffffffffffffffffffffffffffffffffffff16815260200190815260200160002060009054906101000a900460ff16612699576040517f08c379a000000000000000000000000000000000000000000000000000000000815260040161269090614ebe565b60405180910390fd5b600081116126dc576040517f08c379a00000000000000000000000000000000000000000000000000000000081526004016126d390615819565b60405180910390fd5b600180549050811115612724576040517f08c379a000000000000000000000000000000000000000000000000000000000815260040161271b906158ab565b60405180910390fd5b6000600d805490509050600d600181600181540180825580915050039060005260206000209050506000600d828154811061276257612761614f4a565b5b9060005260206000209060040201905082816000018190555060055481600101819055506001600560008282546127999190615175565b92505081905550826005546040516020016127b59291906158cb565b6040516020818303038152906040528051906020012081600201819055506001600e60008360020154815260200190815260200160002060003373ffffffffffffffffffffffffffffffffffffffff1673ffffffffffffffffffffffffffffffffffffffff16815260200190815260200160002060006101000a81548160ff021916908315150217905550600181600301819055508281600201543373ffffffffffffffffffffffffffffffffffffffff167f71ef5fd63801e81ed0bfc148fced2106956b965cb991b9dd34206d864d38296860405160405180910390a4505050565b60008054906101000a900473ffffffffffffffffffffffffffffffffffffffff1673ffffffffffffffffffffffffffffffffffffffff166323b872dd3330846040518463ffffffff1660e01b81526004016128f5939291906158f7565b6020604051808303816000875af1158015612914573d6000803e3d6000fd5b505050506040513d601f19601f8201168201806040525081019061293891906153fa565b612977576040517f08c379a000000000000000000000000000000000000000000000000000000000815260040161296e90615473565b60405180910390fd5b3373ffffffffffffffffffffffffffffffffffffffff167f90890809c654f11d6e72a28fa60149770a0d11ec6c92319d6ceb2bb0a4ea1a158260008054906101000a900473ffffffffffffffffffffffffffffffffffffffff1673ffffffffffffffffffffffffffffffffffffffff166370a08231306040518263ffffffff1660e01b8152600401612a099190614ba7565b602060405180830381865afa158015612a26573d6000803e3d6000fd5b505050506040513d601f19601f82011682018060405250810190612a4a9190615943565b604051612a58929190615970565b60405180910390a250565b60008060009054906101000a900473ffffffffffffffffffffffffffffffffffffffff1673ffffffffffffffffffffffffffffffffffffffff166370a08231306040518263ffffffff1660e01b8152600401612abf9190614ba7565b602060405180830381865afa158015612adc573d6000803e3d6000fd5b505050506040513d601f19601f82011682018060405250810190612b009190615943565b905090565b60035481565b6000600260003373ffffffffffffffffffffffffffffffffffffffff1673ffffffffffffffffffffffffffffffffffffffff16815260200190815260200160002060009054906101000a900460ff16612b99576040517f08c379a0000000000000000000000000000000000000000000000000000000008152600401612b9090614ebe565b60405180910390fd5b60003390506000801b8403612be3576040517f08c379a0000000000000000000000000000000000000000000000000000000008152600401612bda90615057565b60405180910390fd5b600073ffffffffffffffffffffffffffffffffffffffff168173ffffffffffffffffffffffffffffffffffffffff1603612c52576040517f08c379a0000000000000000000000000000000000000000000000000000000008152600401612c49906150c3565b60405180910390fd5b6007600085815260200190815260200160002060008273ffffffffffffffffffffffffffffffffffffffff1673ffffffffffffffffffffffffffffffffffffffff16815260200190815260200160002060009054906101000a900460ff1615612cf0576040517f08c379a0000000000000000000000000000000000000000000000000000000008152600401612ce790615787565b60405180910390fd5b6006600960008681526020019081526020016000205481548110612d1757612d16614f4a565b5b9060005260206000209060060201600201548414612d6a576040517f08c379a0000000000000000000000000000000000000000000000000000000008152600401612d6190615057565b60405180910390fd5b6000612d75856142b9565b90508173ffffffffffffffffffffffffffffffffffffffff16612d9882866142e9565b73ffffffffffffffffffffffffffffffffffffffff161492508215612ed25760006006600960008881526020019081526020016000205481548110612de057612ddf614f4a565b5b9060005260206000209060060201905060016007600088815260200190815260200160002060008573ffffffffffffffffffffffffffffffffffffffff1673ffffffffffffffffffffffffffffffffffffffff16815260200190815260200160002060006101000a81548160ff0219169083151502179055506001816004016000828254612e6e9190615175565b92505081905550858373ffffffffffffffffffffffffffffffffffffffff167fc819438ef3d6fa4423734476b56c26e5999a0102fa309c5acdf519fc3a3d51d860405160405180910390a3600354816004015403612ed057612ecf86614358565b5b505b505092915050565b600260003373ffffffffffffffffffffffffffffffffffffffff1673ffffffffffffffffffffffffffffffffffffffff16815260200190815260200160002060009054906101000a900460ff16612f66576040517f08c379a0000000000000000000000000000000000000000000000000000000008152600401612f5d90614ebe565b60405180910390fd5b60003390506000801b8203612fb0576040517f08c379a0000000000000000000000000000000000000000000000000000000008152600401612fa79061571b565b60405180910390fd5b600073ffffffffffffffffffffffffffffffffffffffff168173ffffffffffffffffffffffffffffffffffffffff160361301f576040517f08c379a0000000000000000000000000000000000000000000000000000000008152600401613016906150c3565b60405180910390fd5b600a600c6000848152602001908152602001600020548154811061304657613045614f4a565b5b9060005260206000209060040201600201548214613099576040517f08c379a00000000000000000000000000000000000000000000000000000000081526004016130909061571b565b60405180910390fd5b6000600b600084815260200190815260200160002060008373ffffffffffffffffffffffffffffffffffffffff1673ffffffffffffffffffffffffffffffffffffffff16815260200190815260200160002060006101000a81548160ff0219169083151502179055506001600a805490506131149190614fa8565b600c60008481526020019081526020016000205414613287576000600c6000848152602001908152602001600020549050600a6001600a805490506131599190614fa8565b8154811061316a57613169614f4a565b5b9060005260206000209060040201600a600c6000868152602001908152602001600020548154811061319f5761319e614f4a565b5b90600052602060002090600402016000820160009054906101000a900473ffffffffffffffffffffffffffffffffffffffff168160000160006101000a81548173ffffffffffffffffffffffffffffffffffffffff021916908373ffffffffffffffffffffffffffffffffffffffff16021790555060018201548160010155600282015481600201556003820154816003015590505080600c6000600a600c6000888152602001908152602001600020548154811061326157613260614f4a565b5b906000526020600020906004020160020154815260200190815260200160002081905550505b600a80548061329957613298614fdc565b5b6001900381819060005260206000209060040201600080820160006101000a81549073ffffffffffffffffffffffffffffffffffffffff021916905560018201600090556002820160009055600382016000905550509055818173ffffffffffffffffffffffffffffffffffffffff167fceca2eea1894a4b134f4e1a0b191cc8c28f4caf4b8eed4e738f387a7fd49e66b60405160405180910390a35050565b60045481565b600260003373ffffffffffffffffffffffffffffffffffffffff1673ffffffffffffffffffffffffffffffffffffffff16815260200190815260200160002060009054906101000a900460ff166133cb576040517f08c379a00000000000000000000000000000000000000000000000000000000081526004016133c290614ebe565b60405180910390fd5b600680549050600960008381526020019081526020016000205410613425576040517f08c379a000000000000000000000000000000000000000000000000000000000815260040161341c906151f5565b60405180910390fd5b6000600660096000848152602001908152602001600020548154811061344e5761344d614f4a565b5b906000526020600020906006020190506007600083815260200190815260200160002060003373ffffffffffffffffffffffffffffffffffffffff1673ffffffffffffffffffffffffffffffffffffffff16815260200190815260200160002060009054906101000a900460ff166134fb576040517f08c379a00000000000000000000000000000000000000000000000000000000081526004016134f2906159e5565b60405180910390fd5b60018160040160008282546135109190614fa8565b9250508190555060006007600084815260200190815260200160002060003373ffffffffffffffffffffffffffffffffffffffff1673ffffffffffffffffffffffffffffffffffffffff16815260200190815260200160002060006101000a81548160ff021916908315150217905550813373ffffffffffffffffffffffffffffffffffffffff167f8071054ba9a22b3a05694ef53d8651ad1a56c23b5a8382cbde9fbde10534e0ab60405160405180910390a35050565b6000600a805490508210613611576040517f08c379a000000000000000000000000000000000000000000000000000000000815260040161360890615a51565b60405180910390fd5b6000600a838154811061362757613626614f4a565b5b906000526020600020906004020190508060020154915050919050565b6000600260003373ffffffffffffffffffffffffffffffffffffffff1673ffffffffffffffffffffffffffffffffffffffff16815260200190815260200160002060009054906101000a900460ff166136d2576040517f08c379a00000000000000000000000000000000000000000000000000000000081526004016136c990614ebe565b60405180910390fd5b60003390506000801b840361371c576040517f08c379a000000000000000000000000000000000000000000000000000000000815260040161371390615abd565b60405180910390fd5b600073ffffffffffffffffffffffffffffffffffffffff168173ffffffffffffffffffffffffffffffffffffffff160361378b576040517f08c379a0000000000000000000000000000000000000000000000000000000008152600401613782906150c3565b60405180910390fd5b600e600085815260200190815260200160002060008273ffffffffffffffffffffffffffffffffffffffff1673ffffffffffffffffffffffffffffffffffffffff16815260200190815260200160002060009054906101000a900460ff1615613829576040517f08c379a000000000000000000000000000000000000000000000000000000000815260040161382090615787565b60405180910390fd5b600d600f600086815260200190815260200160002054815481106138505761384f614f4a565b5b90600052602060002090600402016002015484146138a3576040517f08c379a000000000000000000000000000000000000000000000000000000000815260040161389a90615abd565b60405180910390fd5b60006138ae856142b9565b90508173ffffffffffffffffffffffffffffffffffffffff166138d182866142e9565b73ffffffffffffffffffffffffffffffffffffffff161492508215613aca576000600d600f6000888152602001908152602001600020548154811061391957613918614f4a565b5b906000526020600020906004020190506001600e600088815260200190815260200160002060008573ffffffffffffffffffffffffffffffffffffffff1673ffffffffffffffffffffffffffffffffffffffff16815260200190815260200160002060006101000a81548160ff02191690831515021790555060018160030160008282546139a79190615175565b92505081905550858373ffffffffffffffffffffffffffffffffffffffff167fe8fbce41876f3df3c35c7680b0d2db523f2ab725dbce23337484dd0259f45dc460405160405180910390a3600180549050816003015403613ac8576000816000015460035410905081600001546003819055508015613a75578373ffffffffffffffffffffffffffffffffffffffff167f2ccb3a457aa93d20522516925bd748e3af1575d72225ff1439460468d1b5be3a600354604051613a689190614b7d565b60405180910390a2613ac6565b8373ffffffffffffffffffffffffffffffffffffffff167f553a088f09aece60cea31533978e7260c31a7af06cfa227e8923d693164a3430600354604051613abd9190614b7d565b60405180910390a25b505b505b505092915050565b60018181548110613ae257600080fd5b906000526020600020016000915054906101000a900473ffffffffffffffffffffffffffffffffffffffff1681565b6060600260003373ffffffffffffffffffffffffffffffffffffffff1673ffffffffffffffffffffffffffffffffffffffff16815260200190815260200160002060009054906101000a900460ff16613b9f576040517f08c379a0000000000000000000000000000000000000000000000000000000008152600401613b9690614ebe565b60405180910390fd5b600a805480602002602001604051908101604052809291908181526020016000905b82821015613c6757838290600052602060002090600402016040518060800160405290816000820160009054906101000a900473ffffffffffffffffffffffffffffffffffffffff1673ffffffffffffffffffffffffffffffffffffffff1673ffffffffffffffffffffffffffffffffffffffff168152602001600182015481526020016002820154815260200160038201548152505081526020019060010190613bc1565b50505050905090565b6060600260003373ffffffffffffffffffffffffffffffffffffffff1673ffffffffffffffffffffffffffffffffffffffff16815260200190815260200160002060009054906101000a900460ff16613cfe576040517f08c379a0000000000000000000000000000000000000000000000000000000008152600401613cf590614ebe565b60405180910390fd5b6006805480602002602001604051908101604052809291908181526020016000905b82821015613dda57838290600052602060002090600602016040518060c00160405290816000820160009054906101000a900473ffffffffffffffffffffffffffffffffffffffff1673ffffffffffffffffffffffffffffffffffffffff1673ffffffffffffffffffffffffffffffffffffffff1681526020016001820154815260200160028201548152602001600382015481526020016004820154815260200160058201548152505081526020019060010190613d20565b50505050905090565b600047905090565b3373ffffffffffffffffffffffffffffffffffffffff167f90890809c654f11d6e72a28fa60149770a0d11ec6c92319d6ceb2bb0a4ea1a153460008054906101000a900473ffffffffffffffffffffffffffffffffffffffff1673ffffffffffffffffffffffffffffffffffffffff166370a08231306040518263ffffffff1660e01b8152600401613e7d9190614ba7565b602060405180830381865afa158015613e9a573d6000803e3d6000fd5b505050506040513d601f19601f82011682018060405250810190613ebe9190615943565b604051613ecc929190615970565b60405180910390a2565b600260003373ffffffffffffffffffffffffffffffffffffffff1673ffffffffffffffffffffffffffffffffffffffff16815260200190815260200160002060009054906101000a900460ff16613f62576040517f08c379a0000000000000000000000000000000000000000000000000000000008152600401613f5990614ebe565b60405180910390fd5b60003390506000801b8203613fac576040517f08c379a0000000000000000000000000000000000000000000000000000000008152600401613fa390615abd565b60405180910390fd5b600073ffffffffffffffffffffffffffffffffffffffff168173ffffffffffffffffffffffffffffffffffffffff160361401b576040517f08c379a0000000000000000000000000000000000000000000000000000000008152600401614012906150c3565b60405180910390fd5b600d600f6000848152602001908152602001600020548154811061404257614041614f4a565b5b9060005260206000209060040201600201548214614095576040517f08c379a000000000000000000000000000000000000000000000000000000000815260040161408c90615abd565b60405180910390fd5b6000600e600084815260200190815260200160002060008373ffffffffffffffffffffffffffffffffffffffff1673ffffffffffffffffffffffffffffffffffffffff16815260200190815260200160002060006101000a81548160ff0219169083151502179055506001600d805490506141109190614fa8565b600f60008481526020019081526020016000205414614226576000600f6000848152602001908152602001600020549050600d6001600d805490506141559190614fa8565b8154811061416657614165614f4a565b5b9060005260206000209060040201600d600f6000868152602001908152602001600020548154811061419b5761419a614f4a565b5b90600052602060002090600402016000820154816000015560018201548160010155600282015481600201556003820154816003015590505080600f6000600d600f60008881526020019081526020016000205481548110614200576141ff614f4a565b5b906000526020600020906004020160020154815260200190815260200160002081905550505b600d80548061423857614237614fdc565b5b600190038181906000526020600020906004020160008082016000905560018201600090556002820160009055600382016000905550509055818173ffffffffffffffffffffffffffffffffffffffff167f5624e48df2ec23de0d0c126f6f769c7c0f4d493d16a3bda4b584b5ce9aa04e9d60405160405180910390a35050565b6000816040516020016142cc9190615b55565b604051602081830303815290604052805190602001209050919050565b6000806000806142f88561475f565b925092509250600186828585604051600081526020016040526040516143219493929190615b97565b6020604051602081039080840390855afa158015614343573d6000803e3d6000fd5b50505060206040510351935050505092915050565b6000600660096000848152602001908152602001600020548154811061438157614380614f4a565b5b90600052602060002090600602019050806002015482146143d7576040517f08c379a00000000000000000000000000000000000000000000000000000000081526004016143ce90615057565b60405180910390fd5b80600301546143e4612a63565b1015614425576040517f08c379a000000000000000000000000000000000000000000000000000000000815260040161441c90615385565b60405180910390fd5b60008054906101000a900473ffffffffffffffffffffffffffffffffffffffff1673ffffffffffffffffffffffffffffffffffffffff1663a9059cbb8260000160009054906101000a900473ffffffffffffffffffffffffffffffffffffffff1683600301546040518363ffffffff1660e01b81526004016144a89291906153a5565b6020604051808303816000875af11580156144c7573d6000803e3d6000fd5b505050506040513d601f19601f820116820180604052508101906144eb91906153fa565b61452a576040517f08c379a000000000000000000000000000000000000000000000000000000000815260040161452190615473565b60405180910390fd5b600160068054905061453c9190614fa8565b60096000848152602001908152602001600020541461469d57600060096000848152602001908152602001600020549050600660016006805490506145819190614fa8565b8154811061459257614591614f4a565b5b9060005260206000209060060201600682815481106145b4576145b3614f4a565b5b90600052602060002090600602016000820160009054906101000a900473ffffffffffffffffffffffffffffffffffffffff168160000160006101000a81548173ffffffffffffffffffffffffffffffffffffffff021916908373ffffffffffffffffffffffffffffffffffffffff160217905550600182015481600101556002820154816002015560038201548160030155600482015481600401556005820154816005015590505080600960006006848154811061467757614676614f4a565b5b906000526020600020906006020160020154815260200190815260200160002081905550505b60068054806146af576146ae614fdc565b5b6001900381819060005260206000209060060201600080820160006101000a81549073ffffffffffffffffffffffffffffffffffffffff02191690556001820160009055600282016000905560038201600090556004820160009055600582016000905550509055813373ffffffffffffffffffffffffffffffffffffffff167fc8df7bfc3222d1c6f21127272f38f1c81be6428c4e151fae05d1655f8bed504560405160405180910390a35050565b600080600060418451146147a8576040517f08c379a000000000000000000000000000000000000000000000000000000000815260040161479f90615c28565b60405180910390fd5b6020840151925060408401519150606084015160001a90509193909250565b6000604051905090565b600080fd5b600080fd5b6000819050919050565b6147ee816147db565b81146147f957600080fd5b50565b60008135905061480b816147e5565b92915050565b600060208284031215614827576148266147d1565b5b6000614835848285016147fc565b91505092915050565b6000819050919050565b6148518161483e565b811461485c57600080fd5b50565b60008135905061486e81614848565b92915050565b60006020828403121561488a576148896147d1565b5b60006148988482850161485f565b91505092915050565b6148aa816147db565b82525050565b60006020820190506148c560008301846148a1565b92915050565b600073ffffffffffffffffffffffffffffffffffffffff82169050919050565b60006148f6826148cb565b9050919050565b614906816148eb565b811461491157600080fd5b50565b600081359050614923816148fd565b92915050565b600080604083850312156149405761493f6147d1565b5b600061494e85828601614914565b925050602061495f8582860161485f565b9150509250929050565b60006020828403121561497f5761497e6147d1565b5b600061498d84828501614914565b91505092915050565b600080fd5b600080fd5b6000601f19601f8301169050919050565b7f4e487b7100000000000000000000000000000000000000000000000000000000600052604160045260246000fd5b6149e9826149a0565b810181811067ffffffffffffffff82111715614a0857614a076149b1565b5b80604052505050565b6000614a1b6147c7565b9050614a2782826149e0565b919050565b600067ffffffffffffffff821115614a4757614a466149b1565b5b614a50826149a0565b9050602081019050919050565b82818337600083830152505050565b6000614a7f614a7a84614a2c565b614a11565b905082815260208101848484011115614a9b57614a9a61499b565b5b614aa6848285614a5d565b509392505050565b600082601f830112614ac357614ac2614996565b5b8135614ad3848260208601614a6c565b91505092915050565b60008060408385031215614af357614af26147d1565b5b6000614b01858286016147fc565b925050602083013567ffffffffffffffff811115614b2257614b216147d6565b5b614b2e85828601614aae565b9150509250929050565b60008115159050919050565b614b4d81614b38565b82525050565b6000602082019050614b686000830184614b44565b92915050565b614b778161483e565b82525050565b6000602082019050614b926000830184614b6e565b92915050565b614ba1816148eb565b82525050565b6000602082019050614bbc6000830184614b98565b92915050565b600081519050919050565b600082825260208201905092915050565b6000819050602082019050919050565b614bf7816148eb565b82525050565b614c068161483e565b82525050565b614c15816147db565b82525050565b608082016000820151614c316000850182614bee565b506020820151614c446020850182614bfd565b506040820151614c576040850182614c0c565b506060820151614c6a6060850182614bfd565b50505050565b6000614c7c8383614c1b565b60808301905092915050565b6000602082019050919050565b6000614ca082614bc2565b614caa8185614bcd565b9350614cb583614bde565b8060005b83811015614ce6578151614ccd8882614c70565b9750614cd883614c88565b925050600181019050614cb9565b5085935050505092915050565b60006020820190508181036000830152614d0d8184614c95565b905092915050565b600081519050919050565b600082825260208201905092915050565b6000819050602082019050919050565b60c082016000820151614d576000850182614bee565b506020820151614d6a6020850182614bfd565b506040820151614d7d6040850182614c0c565b506060820151614d906060850182614bfd565b506080820151614da36080850182614bfd565b5060a0820151614db660a0850182614bfd565b50505050565b6000614dc88383614d41565b60c08301905092915050565b6000602082019050919050565b6000614dec82614d15565b614df68185614d20565b9350614e0183614d31565b8060005b83811015614e32578151614e198882614dbc565b9750614e2483614dd4565b925050600181019050614e05565b5085935050505092915050565b60006020820190508181036000830152614e598184614de1565b905092915050565b600082825260208201905092915050565b7f4e6f742061207369676e61746f72790000000000000000000000000000000000600082015250565b6000614ea8600f83614e61565b9150614eb382614e72565b602082019050919050565b60006020820190508181036000830152614ed781614e9b565b9050919050565b7f43616e6e6f742072656d6f7665206c617374207369676e61746f727900000000600082015250565b6000614f14601c83614e61565b9150614f1f82614ede565b602082019050919050565b60006020820190508181036000830152614f4381614f07565b9050919050565b7f4e487b7100000000000000000000000000000000000000000000000000000000600052603260045260246000fd5b7f4e487b7100000000000000000000000000000000000000000000000000000000600052601160045260246000fd5b6000614fb38261483e565b9150614fbe8361483e565b9250828203905081811115614fd657614fd5614f79565b5b92915050565b7f4e487b7100000000000000000000000000000000000000000000000000000000600052603160045260246000fd5b7f496e76616c6964207472616e73616374696f6e20686173680000000000000000600082015250565b6000615041601883614e61565b915061504c8261500b565b602082019050919050565b6000602082019050818103600083015261507081615034565b9050919050565b7f496e76616c696420616464726573730000000000000000000000000000000000600082015250565b60006150ad600f83614e61565b91506150b882615077565b602082019050919050565b600060208201905081810360008301526150dc816150a0565b9050919050565b7f416c72656164792072656a65637465642077697468207468697320616464726560008201527f7373000000000000000000000000000000000000000000000000000000000000602082015250565b600061513f602283614e61565b915061514a826150e3565b604082019050919050565b6000602082019050818103600083015261516e81615132565b9050919050565b60006151808261483e565b915061518b8361483e565b92508282019050808211156151a3576151a2614f79565b5b92915050565b7f5472616e73616374696f6e20696e646578206f7574206f6620626f756e647300600082015250565b60006151df601f83614e61565b91506151ea826151a9565b602082019050919050565b6000602082019050818103600083015261520e816151d2565b9050919050565b7f57616c6c6574206368616e676520696e646578206f7574206f6620626f756e6460008201527f7300000000000000000000000000000000000000000000000000000000000000602082015250565b6000615271602183614e61565b915061527c82615215565b604082019050919050565b600060208201905081810360008301526152a081615264565b9050919050565b7f496e76616c696420616d6f756e74000000000000000000000000000000000000600082015250565b60006152dd600e83614e61565b91506152e8826152a7565b602082019050919050565b6000602082019050818103600083015261530c816152d0565b9050919050565b7f496e73756666696369656e7420616d6f756e74206f6620746f6b656e7320696e60008201527f2077616c6c657400000000000000000000000000000000000000000000000000602082015250565b600061536f602783614e61565b915061537a82615313565b604082019050919050565b6000602082019050818103600083015261539e81615362565b9050919050565b60006040820190506153ba6000830185614b98565b6153c76020830184614b6e565b9392505050565b6153d781614b38565b81146153e257600080fd5b50565b6000815190506153f4816153ce565b92915050565b6000602082840312156154105761540f6147d1565b5b600061541e848285016153e5565b91505092915050565b7f5472616e73666572206661696c65640000000000000000000000000000000000600082015250565b600061545d600f83614e61565b915061546882615427565b602082019050919050565b6000602082019050818103600083015261548c81615450565b9050919050565b60008160601b9050919050565b60006154ab82615493565b9050919050565b60006154bd826154a0565b9050919050565b6154d56154d0826148eb565b6154b2565b82525050565b6000819050919050565b6154f66154f18261483e565b6154db565b82525050565b600061550882866154c4565b60148201915061551882856154e5565b60208201915061552882846154e5565b602082019150819050949350505050565b7f4164647265737320697320616c72656164792061207369676e61746f72790000600082015250565b600061556f601e83614e61565b915061557a82615539565b602082019050919050565b6000602082019050818103600083015261559e81615562565b9050919050565b7f496e76616c6964207369676e61746f7279000000000000000000000000000000600082015250565b60006155db601183614e61565b91506155e6826155a5565b602082019050919050565b6000602082019050818103600083015261560a816155ce565b9050919050565b600061561d82856154c4565b60148201915061562d82846154e5565b6020820191508190509392505050565b7f5472616e73616374696f6e206e6f742072656a65637465642062792073656e6460008201527f6572000000000000000000000000000000000000000000000000000000000000602082015250565b6000615699602283614e61565b91506156a48261563d565b604082019050919050565b600060208201905081810360008301526156c88161568c565b9050919050565b7f496e76616c6964207369676e61746f7279206861736800000000000000000000600082015250565b6000615705601683614e61565b9150615710826156cf565b602082019050919050565b60006020820190508181036000830152615734816156f8565b9050919050565b7f416c7265616479207369676e6564207769746820746869732061646472657373600082015250565b6000615771602083614e61565b915061577c8261573b565b602082019050919050565b600060208201905081810360008301526157a081615764565b9050919050565b7f4d7573742068617665206174206c65617374203120726571756972656420636f60008201527f6e6669726d6174696f6e00000000000000000000000000000000000000000000602082015250565b6000615803602a83614e61565b915061580e826157a7565b604082019050919050565b60006020820190508181036000830152615832816157f6565b9050919050565b7f43616e6e6f742068617665206d6f726520726571756972656420636f6e66697260008201527f6d6174696f6e73207468616e207369676e61746f726965730000000000000000602082015250565b6000615895603883614e61565b91506158a082615839565b604082019050919050565b600060208201905081810360008301526158c481615888565b9050919050565b60006158d782856154e5565b6020820191506158e782846154e5565b6020820191508190509392505050565b600060608201905061590c6000830186614b98565b6159196020830185614b98565b6159266040830184614b6e565b949350505050565b60008151905061593d81614848565b92915050565b600060208284031215615959576159586147d1565b5b60006159678482850161592e565b91505092915050565b60006040820190506159856000830185614b6e565b6159926020830184614b6e565b9392505050565b7f5472616e73616374696f6e206e6f74207369676e65642062792073656e646572600082015250565b60006159cf602083614e61565b91506159da82615999565b602082019050919050565b600060208201905081810360008301526159fe816159c2565b9050919050565b7f5369676e61746f727920696e646578206f7574206f6620626f756e6473000000600082015250565b6000615a3b601d83614e61565b9150615a4682615a05565b602082019050919050565b60006020820190508181036000830152615a6a81615a2e565b9050919050565b7f496e76616c69642077616c6c6574206368616e67652068617368000000000000600082015250565b6000615aa7601a83614e61565b9150615ab282615a71565b602082019050919050565b60006020820190508181036000830152615ad681615a9a565b9050919050565b600081905092915050565b7f19457468657265756d205369676e6564204d6573736167653a0a333200000000600082015250565b6000615b1e601c83615add565b9150615b2982615ae8565b601c82019050919050565b6000819050919050565b615b4f615b4a826147db565b615b34565b82525050565b6000615b6082615b11565b9150615b6c8284615b3e565b60208201915081905092915050565b600060ff82169050919050565b615b9181615b7b565b82525050565b6000608082019050615bac60008301876148a1565b615bb96020830186615b88565b615bc660408301856148a1565b615bd360608301846148a1565b95945050505050565b7f496e76616c6964205369676e6174757265204c656e6774680000000000000000600082015250565b6000615c12601883614e61565b9150615c1d82615bdc565b602082019050919050565b60006020820190508181036000830152615c4181615c05565b905091905056fea26469706673582212209ada5c9d85e1e39c2fdec44849423971c7133632e982c9d212bf983a86d02b9664736f6c63430008170033",
  "linkReferences": {},
  "deployedLinkReferences": {}
}