{
  "contractName": "GHOInteraction",
  "abi": [
    {
      "inputs": [
        {
          "internalType": "address",
          "name": "_ghoTokenAddress",
          "type": "address"
        },
        {
          "internalType": "address[]",
          "name": "_signatories",
          "type": "address[]"
        },
        {
          "internalType": "uint256",
          "name": "_requiredConfirmations",
          "type": "uint256"
        }
      ],
      "stateMutability": "nonpayable",
      "type": "constructor"
    },
    {
      "anonymous": false,
      "inputs": [
        {
          "indexed": true,
          "internalType": "address",
          "name": "owner",
          "type": "address"
        },
        {
          "indexed": true,
          "internalType": "uint256",
          "name": "txIndex",
          "type": "uint256"
        }
      ],
      "name": "ConfirmTransaction",
      "type": "event"
    },
    {
      "anonymous": false,
      "inputs": [
        {
          "indexed": true,
          "internalType": "address",
          "name": "owner",
          "type": "address"
        },
        {
          "indexed": true,
          "internalType": "uint256",
          "name": "txIndex",
          "type": "uint256"
        }
      ],
      "name": "ExecuteTransaction",
      "type": "event"
    },
    {
      "anonymous": false,
      "inputs": [
        {
          "indexed": true,
          "internalType": "address",
          "name": "owner",
          "type": "address"
        },
        {
          "indexed": true,
          "internalType": "uint256",
          "name": "txIndex",
          "type": "uint256"
        },
        {
          "indexed": true,
          "internalType": "address",
          "name": "to",
          "type": "address"
        },
        {
          "indexed": false,
          "internalType": "uint256",
          "name": "amount",
          "type": "uint256"
        }
      ],
      "name": "SubmitTransaction",
      "type": "event"
    },
    {
      "inputs": [],
      "name": "ghoToken",
      "outputs": [
        {
          "internalType": "contract IGHO",
          "name": "",
          "type": "address"
        }
      ],
      "stateMutability": "view",
      "type": "function"
    },
    {
      "inputs": [
        {
          "internalType": "address",
          "name": "",
          "type": "address"
        }
      ],
      "name": "isSignatory",
      "outputs": [
        {
          "internalType": "bool",
          "name": "",
          "type": "bool"
        }
      ],
      "stateMutability": "view",
      "type": "function"
    },
    {
      "inputs": [],
      "name": "requiredConfirmations",
      "outputs": [
        {
          "internalType": "uint256",
          "name": "",
          "type": "uint256"
        }
      ],
      "stateMutability": "view",
      "type": "function"
    },
    {
      "inputs": [
        {
          "internalType": "uint256",
          "name": "",
          "type": "uint256"
        }
      ],
      "name": "signatories",
      "outputs": [
        {
          "internalType": "address",
          "name": "",
          "type": "address"
        }
      ],
      "stateMutability": "view",
      "type": "function"
    },
    {
      "inputs": [
        {
          "internalType": "uint256",
          "name": "",
          "type": "uint256"
        }
      ],
      "name": "transactions",
      "outputs": [
        {
          "internalType": "address",
          "name": "to",
          "type": "address"
        },
        {
          "internalType": "uint256",
          "name": "amount",
          "type": "uint256"
        },
        {
          "internalType": "bool",
          "name": "executed",
          "type": "bool"
        },
        {
          "internalType": "uint256",
          "name": "confirmationsCount",
          "type": "uint256"
        }
      ],
      "stateMutability": "view",
      "type": "function"
    },
    {
      "inputs": [
        {
          "internalType": "address",
          "name": "_to",
          "type": "address"
        },
        {
          "internalType": "uint256",
          "name": "_amount",
          "type": "uint256"
        }
      ],
      "name": "submitTransaction",
      "outputs": [],
      "stateMutability": "nonpayable",
      "type": "function"
    },
    {
      "inputs": [
        {
          "internalType": "uint256",
          "name": "_txIndex",
          "type": "uint256"
        }
      ],
      "name": "confirmTransaction",
      "outputs": [],
      "stateMutability": "nonpayable",
      "type": "function"
    },
    {
      "inputs": [
        {
          "internalType": "uint256",
          "name": "_txIndex",
          "type": "uint256"
        }
      ],
      "name": "executeTransaction",
      "outputs": [],
      "stateMutability": "nonpayable",
      "type": "function"
    }
  ],
  "bytecode": "0x608060405234801562000010575f80fd5b506040516200161d3803806200161d8339818101604052810190620000369190620004da565b825f806101000a81548173ffffffffffffffffffffffffffffffffffffffff021916908373ffffffffffffffffffffffffffffffffffffffff1602179055508082511015620000bc576040517f08c379a0000000000000000000000000000000000000000000000000000000008152600401620000b390620005b0565b60405180910390fd5b5f5b8251811015620002b3575f838281518110620000df57620000de620005d0565b5b602002602001015190505f73ffffffffffffffffffffffffffffffffffffffff168173ffffffffffffffffffffffffffffffffffffffff16036200015a576040517f08c379a000000000000000000000000000000000000000000000000000000000815260040162000151906200064b565b60405180910390fd5b60025f8273ffffffffffffffffffffffffffffffffffffffff1673ffffffffffffffffffffffffffffffffffffffff1681526020019081526020015f205f9054906101000a900460ff1615620001e7576040517f08c379a0000000000000000000000000000000000000000000000000000000008152600401620001de90620006b9565b60405180910390fd5b600160025f8373ffffffffffffffffffffffffffffffffffffffff1673ffffffffffffffffffffffffffffffffffffffff1681526020019081526020015f205f6101000a81548160ff021916908315150217905550600181908060018154018082558091505060019003905f5260205f20015f9091909190916101000a81548173ffffffffffffffffffffffffffffffffffffffff021916908373ffffffffffffffffffffffffffffffffffffffff160217905550508080620002aa9062000706565b915050620000be565b508060038190555050505062000752565b5f604051905090565b5f80fd5b5f80fd5b5f73ffffffffffffffffffffffffffffffffffffffff82169050919050565b5f6200030082620002d5565b9050919050565b6200031281620002f4565b81146200031d575f80fd5b50565b5f81519050620003308162000307565b92915050565b5f80fd5b5f601f19601f8301169050919050565b7f4e487b71000000000000000000000000000000000000000000000000000000005f52604160045260245ffd5b62000382826200033a565b810181811067ffffffffffffffff82111715620003a457620003a36200034a565b5b80604052505050565b5f620003b8620002c4565b9050620003c6828262000377565b919050565b5f67ffffffffffffffff821115620003e857620003e76200034a565b5b602082029050602081019050919050565b5f80fd5b5f620004136200040d84620003cb565b620003ad565b90508083825260208201905060208402830185811115620004395762000438620003f9565b5b835b8181101562000466578062000451888262000320565b8452602084019350506020810190506200043b565b5050509392505050565b5f82601f83011262000487576200048662000336565b5b815162000499848260208601620003fd565b91505092915050565b5f819050919050565b620004b681620004a2565b8114620004c1575f80fd5b50565b5f81519050620004d481620004ab565b92915050565b5f805f60608486031215620004f457620004f3620002cd565b5b5f620005038682870162000320565b935050602084015167ffffffffffffffff811115620005275762000526620002d1565b5b620005358682870162000470565b92505060406200054886828701620004c4565b9150509250925092565b5f82825260208201905092915050565b7f4e6f7420656e6f756768207369676e61746f72696573000000000000000000005f82015250565b5f6200059860168362000552565b9150620005a58262000562565b602082019050919050565b5f6020820190508181035f830152620005c9816200058a565b9050919050565b7f4e487b71000000000000000000000000000000000000000000000000000000005f52603260045260245ffd5b7f496e76616c6964207369676e61746f72790000000000000000000000000000005f82015250565b5f6200063360118362000552565b91506200064082620005fd565b602082019050919050565b5f6020820190508181035f830152620006648162000625565b9050919050565b7f5369676e61746f7279206e6f7420756e697175650000000000000000000000005f82015250565b5f620006a160148362000552565b9150620006ae826200066b565b602082019050919050565b5f6020820190508181035f830152620006d28162000693565b9050919050565b7f4e487b71000000000000000000000000000000000000000000000000000000005f52601160045260245ffd5b5f6200071282620004a2565b91507fffffffffffffffffffffffffffffffffffffffffffffffffffffffffffffffff8203620007475762000746620006d9565b5b600182019050919050565b610ebd80620007605f395ff3fe608060405234801561000f575f80fd5b5060043610610086575f3560e01c80639ace38c2116100595780639ace38c214610112578063c01a8c8414610145578063cdb9df6b14610161578063ee22610b1461019157610086565b80631d43b6531461008a5780635996db91146100a657806382e717f7146100c45780639abd4dd9146100e2575b5f80fd5b6100a4600480360381019061009f9190610998565b6101ad565b005b6100ae610334565b6040516100bb9190610a31565b60405180910390f35b6100cc610357565b6040516100d99190610a59565b60405180910390f35b6100fc60048036038101906100f79190610a72565b61035d565b6040516101099190610ab7565b60405180910390f35b61012c60048036038101906101279190610ad0565b61037a565b60405161013c9493929190610b0a565b60405180910390f35b61015f600480360381019061015a9190610ad0565b6103e0565b005b61017b60048036038101906101769190610ad0565b610623565b6040516101889190610b4d565b60405180910390f35b6101ab60048036038101906101a69190610ad0565b61065e565b005b60025f3373ffffffffffffffffffffffffffffffffffffffff1673ffffffffffffffffffffffffffffffffffffffff1681526020019081526020015f205f9054906101000a900460ff16610236576040517f08c379a000000000000000000000000000000000000000000000000000000000815260040161022d90610bc0565b60405180910390fd5b5f6004805490509050600460018160018154018082558091505003905f5260205f209050505f600482815481106102705761026f610bde565b5b905f5260205f209060050201905083815f015f6101000a81548173ffffffffffffffffffffffffffffffffffffffff021916908373ffffffffffffffffffffffffffffffffffffffff1602179055508281600101819055508373ffffffffffffffffffffffffffffffffffffffff16823373ffffffffffffffffffffffffffffffffffffffff167fcd144288a078b7562351164feb1762115faca27f30827b4142f2bbe27166e320866040516103269190610a59565b60405180910390a450505050565b5f8054906101000a900473ffffffffffffffffffffffffffffffffffffffff1681565b60035481565b6002602052805f5260405f205f915054906101000a900460ff1681565b60048181548110610389575f80fd5b905f5260205f2090600502015f91509050805f015f9054906101000a900473ffffffffffffffffffffffffffffffffffffffff1690806001015490806002015f9054906101000a900460ff16908060040154905084565b60025f3373ffffffffffffffffffffffffffffffffffffffff1673ffffffffffffffffffffffffffffffffffffffff1681526020019081526020015f205f9054906101000a900460ff16610469576040517f08c379a000000000000000000000000000000000000000000000000000000000815260040161046090610bc0565b60405180910390fd5b5f6004828154811061047e5761047d610bde565b5b905f5260205f2090600502019050806002015f9054906101000a900460ff16156104dd576040517f08c379a00000000000000000000000000000000000000000000000000000000081526004016104d490610c55565b60405180910390fd5b806003015f3373ffffffffffffffffffffffffffffffffffffffff1673ffffffffffffffffffffffffffffffffffffffff1681526020019081526020015f205f9054906101000a900460ff1615610569576040517f08c379a000000000000000000000000000000000000000000000000000000000815260040161056090610cbd565b60405180910390fd5b6001816003015f3373ffffffffffffffffffffffffffffffffffffffff1673ffffffffffffffffffffffffffffffffffffffff1681526020019081526020015f205f6101000a81548160ff0219169083151502179055506001816004015f8282546105d49190610d08565b92505081905550813373ffffffffffffffffffffffffffffffffffffffff167f5cbe105e36805f7820e291f799d5794ff948af2a5f664e580382defb6339004160405160405180910390a35050565b60018181548110610632575f80fd5b905f5260205f20015f915054906101000a900473ffffffffffffffffffffffffffffffffffffffff1681565b60025f3373ffffffffffffffffffffffffffffffffffffffff1673ffffffffffffffffffffffffffffffffffffffff1681526020019081526020015f205f9054906101000a900460ff166106e7576040517f08c379a00000000000000000000000000000000000000000000000000000000081526004016106de90610bc0565b60405180910390fd5b5f600482815481106106fc576106fb610bde565b5b905f5260205f2090600502019050806002015f9054906101000a900460ff161561075b576040517f08c379a000000000000000000000000000000000000000000000000000000000815260040161075290610c55565b60405180910390fd5b600354816004015410156107a4576040517f08c379a000000000000000000000000000000000000000000000000000000000815260040161079b90610d85565b60405180910390fd5b6001816002015f6101000a81548160ff0219169083151502179055505f8054906101000a900473ffffffffffffffffffffffffffffffffffffffff1673ffffffffffffffffffffffffffffffffffffffff1663a9059cbb825f015f9054906101000a900473ffffffffffffffffffffffffffffffffffffffff1683600101546040518363ffffffff1660e01b8152600401610840929190610da3565b6020604051808303815f875af115801561085c573d5f803e3d5ffd5b505050506040513d601f19601f820116820180604052508101906108809190610df4565b6108bf576040517f08c379a00000000000000000000000000000000000000000000000000000000081526004016108b690610e69565b60405180910390fd5b813373ffffffffffffffffffffffffffffffffffffffff167f5445f318f4f5fcfb66592e68e0cc5822aa15664039bd5f0ffde24c5a8142b1ac60405160405180910390a35050565b5f80fd5b5f73ffffffffffffffffffffffffffffffffffffffff82169050919050565b5f6109348261090b565b9050919050565b6109448161092a565b811461094e575f80fd5b50565b5f8135905061095f8161093b565b92915050565b5f819050919050565b61097781610965565b8114610981575f80fd5b50565b5f813590506109928161096e565b92915050565b5f80604083850312156109ae576109ad610907565b5b5f6109bb85828601610951565b92505060206109cc85828601610984565b9150509250929050565b5f819050919050565b5f6109f96109f46109ef8461090b565b6109d6565b61090b565b9050919050565b5f610a0a826109df565b9050919050565b5f610a1b82610a00565b9050919050565b610a2b81610a11565b82525050565b5f602082019050610a445f830184610a22565b92915050565b610a5381610965565b82525050565b5f602082019050610a6c5f830184610a4a565b92915050565b5f60208284031215610a8757610a86610907565b5b5f610a9484828501610951565b91505092915050565b5f8115159050919050565b610ab181610a9d565b82525050565b5f602082019050610aca5f830184610aa8565b92915050565b5f60208284031215610ae557610ae4610907565b5b5f610af284828501610984565b91505092915050565b610b048161092a565b82525050565b5f608082019050610b1d5f830187610afb565b610b2a6020830186610a4a565b610b376040830185610aa8565b610b446060830184610a4a565b95945050505050565b5f602082019050610b605f830184610afb565b92915050565b5f82825260208201905092915050565b7f4e6f742061207369676e61746f727900000000000000000000000000000000005f82015250565b5f610baa600f83610b66565b9150610bb582610b76565b602082019050919050565b5f6020820190508181035f830152610bd781610b9e565b9050919050565b7f4e487b71000000000000000000000000000000000000000000000000000000005f52603260045260245ffd5b7f5472616e73616374696f6e20616c7265616479206578656375746564000000005f82015250565b5f610c3f601c83610b66565b9150610c4a82610c0b565b602082019050919050565b5f6020820190508181035f830152610c6c81610c33565b9050919050565b7f5472616e73616374696f6e20616c726561647920636f6e6669726d65640000005f82015250565b5f610ca7601d83610b66565b9150610cb282610c73565b602082019050919050565b5f6020820190508181035f830152610cd481610c9b565b9050919050565b7f4e487b71000000000000000000000000000000000000000000000000000000005f52601160045260245ffd5b5f610d1282610965565b9150610d1d83610965565b9250828201905080821115610d3557610d34610cdb565b5b92915050565b7f496e73756666696369656e7420636f6e6669726d6174696f6e730000000000005f82015250565b5f610d6f601a83610b66565b9150610d7a82610d3b565b602082019050919050565b5f6020820190508181035f830152610d9c81610d63565b9050919050565b5f604082019050610db65f830185610afb565b610dc36020830184610a4a565b9392505050565b610dd381610a9d565b8114610ddd575f80fd5b50565b5f81519050610dee81610dca565b92915050565b5f60208284031215610e0957610e08610907565b5b5f610e1684828501610de0565b91505092915050565b7f5472616e73666572206661696c656400000000000000000000000000000000005f82015250565b5f610e53600f83610b66565b9150610e5e82610e1f565b602082019050919050565b5f6020820190508181035f830152610e8081610e47565b905091905056fea2646970667358221220e80f46c108735849903478537610fe842bbc7b8d0ce36d62bc141d94f150d3c864736f6c63430008150033",
  "immutableReferences": {},
  "source": "// SPDX-License-Identifier: MIT\npragma solidity ^0.8.21;\n\ninterface IGHO {\n    function transfer(address to, uint256 amount) external returns (bool);\n}\n\ncontract GHOInteraction {\n    IGHO public ghoToken;\n    address[] public signatories;\n    mapping(address => bool) public isSignatory;\n    uint public requiredConfirmations;\n\n    struct Transaction {\n        address to;\n        uint256 amount;\n        bool executed;\n        mapping(address => bool) confirmations;\n        uint confirmationsCount;\n    }\n\n    Transaction[] public transactions;\n\n    modifier onlySignatory() {\n        require(isSignatory[msg.sender], \"Not a signatory\");\n        _;\n    }\n\n    constructor(address _ghoTokenAddress, address[] memory _signatories, uint _requiredConfirmations) {\n        ghoToken = IGHO(_ghoTokenAddress);\n        require(_signatories.length >= _requiredConfirmations, \"Not enough signatories\");\n        for (uint i = 0; i < _signatories.length; i++) {\n            address signatory = _signatories[i];\n            require(signatory != address(0), \"Invalid signatory\");\n            require(!isSignatory[signatory], \"Signatory not unique\");\n\n            isSignatory[signatory] = true;\n            signatories.push(signatory);\n        }\n        requiredConfirmations = _requiredConfirmations;\n    }\n\n    function submitTransaction(address _to, uint256 _amount) public onlySignatory {\n        uint txIndex = transactions.length;\n        transactions.push();\n        Transaction storage newTx = transactions[txIndex];\n        newTx.to = _to;\n        newTx.amount = _amount;\n\n        emit SubmitTransaction(msg.sender, txIndex, _to, _amount);\n    }\n\n    function confirmTransaction(uint _txIndex) public onlySignatory {\n        Transaction storage transaction = transactions[_txIndex];\n        require(!transaction.executed, \"Transaction already executed\");\n        require(!transaction.confirmations[msg.sender], \"Transaction already confirmed\");\n\n        transaction.confirmations[msg.sender] = true;\n        transaction.confirmationsCount += 1;\n\n        emit ConfirmTransaction(msg.sender, _txIndex);\n    }\n\n    function executeTransaction(uint _txIndex) public onlySignatory {\n        Transaction storage transaction = transactions[_txIndex];\n        require(!transaction.executed, \"Transaction already executed\");\n        require(transaction.confirmationsCount >= requiredConfirmations, \"Insufficient confirmations\");\n\n        transaction.executed = true;\n        require(ghoToken.transfer(transaction.to, transaction.amount), \"Transfer failed\");\n\n        emit ExecuteTransaction(msg.sender, _txIndex);\n    }\n\n    // Add function to add and remove signatories if needed\n\n    // Events\n    event SubmitTransaction(address indexed owner, uint indexed txIndex, address indexed to, uint amount);\n    event ConfirmTransaction(address indexed owner, uint indexed txIndex);\n    event ExecuteTransaction(address indexed owner, uint indexed txIndex);\n}\n",
  "sourcePath": "/Users/david/Desktop/projects/korthathon/contracts/ghomultisig.sol",
  "compiler": {
    "name": "solc",
    "version": "0.8.21+commit.d9974bed.Emscripten.clang"
  },
  "schemaVersion": "3.4.16",
  "updatedAt": "2024-01-16T04:04:03.183Z",
  "devdoc": {
    "kind": "dev",
    "methods": {},
    "version": 1
  },
  "userdoc": {
    "kind": "user",
    "methods": {},
    "version": 1
  }
}